:400000000080002011000000ED190000ED19000080B500AF024A034B1B68136001F018FDBC760040FA46004010B5054C237833B9044B13B10448AFF300800123237010BDF5
:400040009081FF1F00000000F8910000084B10B51BB108490848AFF300800848036803B910BD074B002BFBD0BDE81040184700BF000000009481FF1FF8910000C880FF1F60
:4000800000000000B0B586B000AF02F043F8002002F0AEF800F0BAF8642004F0F7FA404B1B781A463F4B33F812307B820223FB6000237B81F86808F07FF804460D463A4B04
:4000C0001B78184608F078F802460B462046294606F054FE03460C461846214608F092FB03467B7202F03EFD7B890221184600F061F87B7A7A8A02FB03F3184608F06CF835
:4001000003460C461A4623464FF00000274908F0F3F903460C461846214608F093FB03467B60786808F0DEFB03467B617B69FA2B04DD7B69DA0F13445B107B61042002F07D
:4001400037F87B699BB20021184600F033F87B69DA0F13445B109BB20121184600F02AF8002002F025F87B69DA0F13445B109BB20321184600F01EF87B699BB204211846D0
:4001800000F018F8002002F033F800F04DF81421074800F0D1FB00BF1837BD46B0BD00BF0D82FF1F009200000C82FF1F0040BF401082FF1F80B582B000AF03460A46FB804C
:4001C00013467B71FB88DBB2184602F011F8642004F05CFA02F0D6FC03469AB2094B1A807B79B7F90610084A22F813107B790533044A128811B2044A22F8131000BF083793
:40020000BD4680BDAC81FF1F1082FF1F80B500AF002003F023F902F017F902F055FA02F095FF00BF80BD00BF80B500AF012003F015F902F0EFF802F02DFA02F055FF01F0BD
:400240007DFF00BF80BD00BF80B500AF00F05AF803461A460C4B1A700B4B1B78022B09D102F0B4FF094B4FF400621A80012003F099F807E003F034F9044B80221A80002018
:4002800003F090F800BF80BD9445002050A9FF1F80B500AF054B1B78022B02D103F034F801E003F007FA00BF80BD00BF9445002080B500AF054B1B78022B02D103F03EF858
:4002C00001E003F011FA00BF80BD00BF9445002080B582B000AF0346FB80094B1B78022B04D1FB88184602F093FF04E0FB88DBB2184603F063F900BF0837BD4680BD00BFA5
:400300009445002080B500AF002000F041F80346184680BD80B582B000AF0346FB710C4AFB791370FB790021184600F013F8084B1B78022B02D103F0E7F801E002F058FFCB
:40034000FFF782FFFFF7A4FF00BF0837BD4680BD9445002080B584B000AF03460A46FB711346BB8001F012FC0A2004F0B1F901F0C1FCBA88FB791146184601F013FC03465C
:40038000FB7301F009FCFB7B18461037BD4680BD80B584B000AF0346FB8001F0F7FB0A2004F096F901F0A6FC0A2004F091F9FB88184601F081FC0346FB7301F0EDFBFB7B82
:4003C00018461037BD4680BD80B500AF00F01AF800F044F803F09EF903F026F802F0F6FF02F0C6FF02F0F2FFFFF72EFF012003F0ABF9012003F032F8002003F001F800BF06
:4004000080BD00BF80B500AF02F0B8FA01F06AFF02F056F803F0D8F901F022FD00BF80BD80B500AF02F092FE02F00EF802F04CF9FFF73EFF012004F029F9074B1B8818467C
:40044000FFF746FF0A2004F021F903F03FFA01F021FE00BF80BD00BF4EA9FF1F80B500AF02F042FEFFF714FF01F0D4FF02F012F903F012FA01F0F4FD00BF80BD80B584B0D7
:4004800000AF03460A46FB801346BB800023FB81B988FB880022184600F00EF90346FB81FB890121184600F09BF80346FB81FA89F988BB88184600F0FFF80346FB81FB8925
:4004C0000549FA8821F81320FB890133FB81FB8918461037BD4680BD2482FF1F90B587B002AF0446084611461A462346FB800346BB800B467B8013463B800023FB817C8898
:400500003A88B988F88800230093234600F024F90346FB81FB890221184600F061F80346FB817C883A88F988B888FB890093234600F012F90346FB81FB890649FA8821F8FF
:400540001320FB890133FB81FB8918461437BD4690BD00BF2482FF1F80B584B000AF03460A46FB801346BB800023FB811A4B1B88F9880022184600F09FF80346FB81FB89DC
:400580000121184600F02CF80346FB81FA89B988FB88184600F090F80346FB81FB890121184600F01DF80346FB810B4B1988FA89BB88184600F080F80346FB81FB89064A16
:4005C0001188064A22F81310FB890133FB81FB8918461037BD4680BD50A9FF1F2482FF1F80B483B000AF03460A46FB801346BB80FA88BB889A4204D3FA88BB88D31A9BB228
:4006000000E0FB8818460C37BD4680BC704700BF90B587B002AF0446084611461A462346FB800346BB800B467B8013463B800023FB811F4B18887C883A88F9880023009317
:40064000234600F089F80346FB81FB8902211846FFF7C6FF0346FB817C883A88B988F888FB890093234600F077F80346FB81FB8902211846FFF7B4FF0346FB810C4B1988C0
:400680007C883A88B888FB890093234600F064F80346FB81FB89064A1188064A22F81310FB890133FB81FB8918461437BD4690BD50A9FF1F2482FF1F80B485B000AF0346BC
:4006C000FB800B46BB8013467B80FA88BB889A421DD2FB88FB8114E07B88F9891D4A22F813107B8801337B807B8841F28732934201D97B8829E0B7F90E309BB201339BB25B
:40070000FB81B7F90E20BB889A42E5DD1CE0FB88BB8114E07B88B9890E4A22F813107B8801337B807B8841F28732934201D97B880BE0B7F90C309BB2013B9BB2BB81B7F989
:400740000C20BB889A42E5DA7B8818461437BD4680BC70472482FF1F90B484B000AF0446084611461A462346FB800346BB800B467B8013463B803B8B41F28832934201D969
:400780003B8B59E0FA88BB889A422AD2FB88FB8121E03B8BF9893A880A4491B2294A22F813103B8B01333B833B8BF9893A888A1A91B2244A22F813103B8B01333B833B8B80
:4007C00041F28832934201D93B8B35E0FA897B8813449BB2FB81B7F90E20BB889A42D8DD29E0FB88BB8121E03B8BB9893A880A4491B2144A22F813103B8B01333B833B8BED
:40080000B9893A888A1A91B20E4A22F813103B8B01333B833B8B41F28832934201D93B8B0AE0BA897B88D31A9BB2BB81B7F90C20BB889A42D8DA3B8B18461037BD4690BC4B
:40084000704700BF2482FF1F80B485B000AF03460A46FB801346BB800023FB6007E01549FB68FA8821F81320FB680133FB60FB68B3F57A7FF3DB07E00E49FB68BA8821F8CA
:400880001320FB680133FB60FB68B3F5FA6FF3DB07E00849FB68FA8821F81320FB680133FB60FB68B3F57A6FF3DB00BF1437BD4680BC70472482FF1F80B485B000AF786000
:4008C0000B46FB700023FB810023BB6011E0FB891A46920013445B009AB2BB6879680B441B789BB213449BB2303BFB81BB680133BB60FA78BB689A42E9DCFB891846143767
:40090000BD4680BC704700BF80B584B000AF786004F06CFD0346FB81FB89002B06D0FB891946786804F09EFD012300E0002318461037BD4680BD00BF80B584B000AF78605E
:400940000B467B800023BB601AE0BB689BB27A88D31AFB81FB89402B01D94023FB8100BF04F06EFD0346002BFAD0BB687A681344FA891146184604F003FDBB684033BB60DB
:400980007A88BB689A42E0DC00BF1037BD4680BD80B584B000AF78607B6802331B78303BFB73FB7B012B02D0FB7B022B04D1FB7B0021184602F03CFA7B6804331B78303B9F
:4009C000DAB2184B1A70174B1B78184601F0D2FC7B6806331B78303BDAB2134B1A70124B1B78184602F0A0F87B6808331B78542B11D10E4B01221A707B680A331B78303BD0
:400A0000DAB20A4B5A707B68083300221A70002000F002FE02E0002000F034FE00BF1037BD4680BD0D82FF1F0C82FF1F9845002080B584B000AF78607B68023304211846E6
:400A4000FFF73AFF0346FB81FB8919460348FFF773FF00BF1037BD4680BD00BF2482FF1F80B500AF02210248FFF766FF00BF80BDCC80FF1F80B584B000AF78607B6801330A
:400A80001B78522B0CD156233B73FFF73BFC03467B7307F10C0302211846FFF74DFF10E07B6801331B78532B0BD17B6802331B78303BDBB21846FFF72DFCFFF7C5FBFFF734
:400AC000E7FB00BF1037BD4680BD00BF98B500AF01F0A8F90346002B36D102F047FF0346002B01D002F054FF1A4B00221A801A4B1A881A4B1A80FFF793FC184B1B88184634
:400B0000FFF7E6FB142003F0C1FD02F02BF80A2003F0BCFD642001F00BFA0E4B1B881C4602F030F803461A460D4B23F814200B4B1B881846FFF7CCFB142003F0A7FD01F0FC
:400B400065F901F015F903E007210648FFF7F4FE00BF98BD964500202482FF1F4EA9FF1F54A9FF1F1092000080B500AF01F06CF901F00AF902F00CFFFFF770FC024B002236
:400B80001A8000BF80BD00BF9645002080B500AF02F0FEFE01F0F8F801F056F915210248FFF7CAFE00BF80BD1892000080B584B000AF786001F06EFA7B6802330521184629
:400BC000FFF77AFE0346FB81FB895B089BB2184601F0DEF9FB89184601F0CAF901F040FA00BF1037BD4680BD80B584B000AF786001F050FA7B68023304211846FFF75CFE4B
:400C00000346FB817B68073304211846FFF754FE0346BB817B680C3305211846FFF74CFE03467B817B89184601F0A2F9BA89FB8911461846FFF708FE054B1A88054B1A8015
:400C400001F00EFA4FF47A6318461037BD4680BD2482FF1F4EA9FF1F80B586B000AF78607B681B78472B04D1786800F067F803465BE001F00FFA7B68023304211846FFF7B0
:400C80001BFE0346BB827B68073304211846FFF713FE03467B827B680C3305211846FFF70BFE03463B827B689B7CFB737B68DB7CBB733B8A184601F05BF90023FB82FB7BAF
:400CC0004C2B14D1798ABB8A00221846FFF7F4FC0346FB82FB8AFA8A013A164931F81210144A22F81310FB8A0133FB8216E0BB7B5A2B08D17A8ABB8A11461846FFF72CFCBF
:400D00000346FB820AE0BB7B532B07D17A8ABB8A11461846FFF7B2FB0346FB82054B1A88054B1A8001F09CF9FB8A18461837BD4680BD00BF2482FF1F4EA9FF1F90B589B026
:400D400002AF78600023FB827B68023304211846FFF7B2FD0346BB827B68073304211846FFF7AAFD03467B827B680C3304211846FFF7A2FD03463B827B6811330421184617
:400D8000FFF79AFD0346FB817B68163305211846FFF792FD0346BB817B681C331B787B817B681D331B783B8101F074F9BB89184601F0DEF801F054F97B894C2B0BD1FC8903
:400DC0003A8A798AB88A002300932346FFF7C4FC0346FB8216E03B895A2B08D13B8AFA89798AB88AFFF714FC0346FB820AE03B89532B07D13B8AFA89798AB88AFFF76EFBEE
:400E00000346FB82FB8A18461C37BD4690BD00BF80B584B000AF7860FFF702FB02F0A6FD0346002B08D100F0FDFF0346002B03D001F00AF800F0A8FF7B680233042118468A
:400E4000FFF73AFD0346FB810D4B00221A80FB891846FFF73DFA01F085FE0F2003F016FC7B68073304211846FFF726FD0346BB8102F070FDBB8918461037BD4680BD00BF30
:400E80009645002080B500AF174B1B881846FFF71FFA164B1B8801339AB2144B1A80134B1A88134B1B889A4214D300F06DFF00F0CBFF0E4B1B881A460E4B4FF4404123F8F6
:400EC0001210FFF7CBFA094B00221A8005210A48FFF732FD054B1B881A46084B33F81220014B1A8000BF80BD4EA9FF1F96450020CC80FF1F54A9FF1F309200002482FF1F68
:400F000098B500AF054B1B881C4601F03BFE03461A46034B23F8142000BF98BD9645002054A9FF1FB0B500AF274B1B781D46274B1B881C4601F026FE03461946244A41F275
:400F4000883303FB05F3234422F813101F4B1B8801339AB21D4B1A801C4B1A881D4B1B889A422FD3184B1B781846184B1B881946174A41F2883303FB00F30B444FF440418F
:400F800022F81310114B00221A800F4B1A78124B1A700D4B1B785A1C104B1340002B03DA013B63F003030133DAB2074B1A700A4B1B781A460A490B4807F0FAFC062109486E
:400FC000FFF7BAFC00BFB0BDB081FF1F9645002054A9FF1FCE80FF1FBE4900200300008038920000C049002080B582B000AF62B60121002003F0E0FDFFF7E6F90021022053
:4010000001F016FF00BF03F07BFF0346002BFAD0A44800F0C5FE00F017FFA34800F072FE00F0B2FE04F058F9A04802F05DFC02F0AFFC9F4B1B78002B06D19E48FFF764FCE0
:4010400003461A469A4B1A70994B1B78012BF0D1984B1B78413B322B00F21D8101A252F823F000BFD7110000B7110000BD110000391200005511000031110000871200004C
:4010800071120000F31100009712000097120000F91100004B12000097120000971200009712000019120000E711000029120000CF11000097120000DF1100009712000075
:4010C000ED11000097120000971200009712000097120000971200009712000097120000971200009712000097120000971200007F1200009712000097120000B11100000A
:4011000097120000971200009712000097120000A911000097120000971200009712000097120000971200009712000077120000604B5B78303BFB71FB7942F2107202FB56
:4011400003F35D4A1A445D4B1B8819461046FFF7F3FBA0E0574B5B78303BBB71BB79042B1DD8BB7942F2107202FB03F3524A1A44534B1B8801339BB25B009BB219461046B6
:40118000FFF7DAFBBB794E4A128810B24A4A42F2107101FB03F3134402461A807BE010214848FFF7C9FB76E04248FFF741FC72E0FFF756FC6FE0FEF765FF6CE005214248A1
:4011C000FFF77AFB0346184600F0E2FE63E03948FFF7ECFC5FE03748FFF7DAFB5BE03548FFF748FC57E0FFF771FC54E0FFF7BCFC51E0FFF7CBFC4EE001213348FFF75CFB6E
:401200000346DBB2023BDAB2304B1A702F4B1B78184602F099FA3EE02648FFF7E5FC03461A46274B1A8036E02248FFF715FD03461A46234B1A802EE004212348FFF73CFBFE
:4012400003461846FFF744F825E0214B00221A701848FFF7DDFD03461A461E4B1A801D4B1B8801339BB25B009AB2144B1A8012E0FFF7D6F80FE0022000F05EF90BE0022055
:4012800000F090F907E00B48FFF7E6FC03461A460B4B1A8000BF074B30221A70044B00221A70C6E6850E0000010F0000250F0000AE81FF1F9C45002054A9FF1FBC49002011
:4012C000CC80FF1F409200009E450020AF81FF1FB081FF1FCE80FF1F80B582B000AF786039603A680021786807F059FB00BF0837BD4680BD80B584B000AFF860B9607A6090
:401300007A68B968F86807F03FFB00BF1037BD4680BD00BF80B483B000AF0346FB71FEE780B582B000AF424B63221A80414B18221A70414B00221A80404B50221A70404BF8
:40134000BF221A803F4B18221A7004223E493F48FFF7D0FF3E4B06221A703E4B52221A703D4B3E4A1278D2B21A703D4B4FF4E2621A803C4B41F251221A800023FB70192307
:401380007B6014E0FB785B00DAB2374B1B78DBB203F00103DBB21343DBB203F00303FB704FF4F07005F098FC7B68013B7B607B68002B02D0FB78032BE4D17B68002B02D15A
:4013C0000320FFF7A7FF294B4FF480721A80274B07221A70264B00221A70264B48221A70224B00221A70244B00221A70234B02221A70234B04221A70224A224B1B78DBB2DD
:4014000043F00703DBB213701F4A1F4B1B78DBB243F00103DBB213701C4A1C4B1B78DBB263F07F03DBB2137000BF0837BD4680BD8040004082400040844000408640004009
:40144000884000408A4000405C100048004100400043004000420040A14600400F010049224200402042004025420040044000400640004008400040094000400140004017
:401480000B400040A2430040A1430040A043004080B483B000AF1A4B1B78FB71194AFB7903F00703DBB21370174AFB791B09DBB21370164B80221A70154B02221A70154BD3
:4014C00080221A70144B02221A70144B40221A70134B02221A70134B20221A70124B40221A70124B02221A70114B04221A70114B44221A7000BF0C37BD4680BC704700BFCF
:40150000CF0100496E5800406F5800400D5100403D510040205A0040245A0040285A0040805A0040985A0040005B0040045B0040435B00407658004080B483B000AF03460E
:40154000FB71FB79022B24D8FA79FB791344FB71FB79124A52F82330FA79104951F822201178FA790E48825C0A43D2B21A70FB790133FB71FB79094A52F82330FA7907492E
:4015800051F822201178FA790548825C0A43D2B21A7000BF0C37BD4680BC7047509200006892000080B483B000AF0346FB71FB79022B28D8FA79FB791344FB71FB79144A62
:4015C00052F82330FA79124951F822201178FA791048825CD243D2B20A40D2B21A70FB790133FB71FB790A4A52F82330FA79084951F822201178FA790648825CD243D2B249
:401600000A40D2B21A7000BF0C37BD4680BC7047509200006892000080B483B000AF0346FB71FB79002B24D1FA79FB791344FB71FB79124A52F82330FA79104951F82220B1
:401640001178FA790E48825C0A43D2B21A70FB790133FB71FB79094A52F82330FA79074951F822201178FA790548825C0A43D2B21A7000BF0C37BD4680BC7047709200009D
:401680007892000080B483B000AF0346FB71FB79002B28D1FA79FB791344FB71FB79144A52F82330FA79124951F822201178FA791048825CD243D2B20A40D2B21A70FB79B4
:4016C0000133FB71FB790A4A52F82330FA79084951F822201178FA790648825CD243D2B20A40D2B21A7000BF0C37BD4680BC7047709200007892000080B483B000AF03461A
:40170000FB71FB79012B24D8FA79FB791344FB71FB79124A52F82330FA79104951F822201178FA790E48825C0A43D2B21A70FB790133FB71FB79094A52F82330FA7907496D
:4017400051F822201178FA790548825C0A43D2B21A7000BF0C37BD4680BC70477C9200008C92000080B483B000AF0346FB71FB79012B28D8FA79FB791344FB71FB79144A51
:4017800052F82330FA79124951F822201178FA791048825CD243D2B20A40D2B21A70FB790133FB71FB790A4A52F82330FA79084951F822201178FA790648825CD243D2B287
:4017C0000A40D2B21A7000BF0C37BD4680BC70477C9200008C92000080B483B000AF0346FB71FB79012B0ED8FB79094A52F82330FA79074951F822201178FA790548825C43
:401800000A43D2B21A7000BF0C37BD4680BC7047909200009892000080B483B000AF0346FB71FB79012B10D8FB790A4A52F82330FA79084951F822201178FA790648825CDA
:40184000D243D2B20A40D2B21A7000BF0C37BD4680BC7047909200009892000080B586B000AF72B64D4A4D4B1B78DBB243F00403DBB213700023FB7513E0FA7D13465B00A7
:4018800013445B00464A13443B613B691A683B699B889BB219461046FFF71EFDFB7D0133FB75FB7D122BE8D90023FB751CE0FA7D13469B0013445B003A4A1344FB60FB681C
:4018C0001B68BB60FB685B687B60FB681A7A5B7A1B0213437B807B881A467968B868FFF709FDFB7D0133FB75FB7D252BDFD92E4B0A221A7004212D48FFF7EEFC2C4A2C4B7D
:401900001B78DBB243F00203DBB21370294A294B1B78DBB243F00203DBB21370264A264B1B78DBB243F04003DBB21370234A234B1B78DBB243F01003DBB213700822204985
:401940002048FFF7D7FC0A221F492048FFF7D2FC08221F491F48FFF7CDFC08221E491F48FFF7C8FC1E4A1E4B1B78DBB243F00803DBB213701B4B61221A70FFF7D1FC194B33
:40198000C1221A70FFF784FD0E220B491648FFF7B1FC00BF1837BD4680BD00BFE84600409C9200001093000083580040007600400350014013500140A0430040C243004001
:4019C000381000480251004040100048F05100404C1000481251004054100048325100402243004000480040B043004080B500AF06F09EFF03461B680C2B00D1FEE7FEE780
:401A000080B584B000AF78600F4B1A687B6813441A460E4BD31A802B09DC0B4B1B68FB60094B1A687B681344074A136007E006F07FFF02460C2313604FF0FF33FB60FB68EE
:401A400018461037BD4680BDD080FF1FE84A002080B586B000AF224B7B61224B3B61204B7B6135E03B691B68FB603B695B68BB603B699B683B6000237B600CE0FB681A68E4
:401A8000BB681A60BB680433BB60FB680433FB607B6804337B607A683B689A42EED13B69DB683B6000237B6008E0BB6800221A60BB680433BB607B6804337B607A683B68F4
:401AC0009A42F2D13B6910333B617B69013B7B617B69002BC6D106F031FFFFF785FAFEE701000000A496000080B582B000AF194B194A1A60194A194B1B6843F400731360A9
:401B000000237B600FE07B68032B04D8144A7B6852F8233000E0134B13497A6841F822307B6801337B607B682F2BECD90F4B1B78DAB20F4B1A700F4B0B4A1A60FFF78EFEEA
:401B400002F062FA0C4B00221A6000BF0837BD4680BD00BF0CED00E00004FA0514ED00E000000000ED1900000080FF1FBC760040C480FF1F08ED00E0C080FF1F80B500AFDB
:401B800002F0D4FC02F0E4FC00BF80BD80B500AFFFF7F4FF00BF80BD80B500AF02F01EFD00BF80BD80B584B000AF03460A46FB711346BB8002F04EFEBB88B3F5006F70D254
:401BC000BB881B097B817B891B019BB2BA88D31A3B8102F073FF0346002B5FD1FA1D39890123402002F084FEF860FB68072B4CD14FF0FF33FB6000BF2D4B1B78DBB203F031
:401C00000203002BF8D02A4B1B78DBB203F00203002B08D0264B1B78DBB29B08DBB2002B01D10023FB60FB68002B2AD1214B1A78204B5B787989402002F0C2FE0346072B8C
:401C40001BD14FF0FF33FB6000BF194B1B78DBB203F00203002BF8D0154B1B78DBB203F00203002B17D0124B1B78DBB29B08DBB2002B10D10023FB600DE04FF0FF33FB6004
:401C800009E04FF0FF33FB6005E0FB68012B02D04FF0FF33FB6002F045FF04E00423FB6001E00123FB60FB6818461037BD4680BD22470040044A002080B584B000AF0346A1
:401CC000FB8005F011F80346FB7302F0ABFCFB8803F1804303F500431B78BB7302F0BAFCFB7B184605F004F8BB7B18461037BD4680BD00BF80B500AF02F018FC0346DBB2DE
:401D0000184680BD80B582B000AF786000F03CF8786800F009F8022000F018F800F028F800BF0837BD4680BD80B485B000AF7860054B1B68FB60FB684C337A681A6000BF9A
:401D40001437BD4680BC704708ED00E080B483B000AF0346FB71054AFB795B01DBB2137000BF0C37BD4680BC704700BF03E400E080B400AF034B08221A6000BFBD4680BC02
:401D8000704700BF00E100E080B400AF034B08221A6000BFBD4680BC704700BF80E100E080B582B000AF786000F04EF8786800F009F8012000F018F800F028F800BF08373E
:401DC000BD4680BD80B485B000AF7860054B1B68FB60FB6854337A681A6000BF1437BD4680BC704708ED00E080B483B000AF0346FB71054AFB795B01DBB2137000BF0C376E
:401E0000BD4680BC704700BF05E400E080B400AF034B20221A6000BFBD4680BC704700BF00E100E080B400AF064B1B6803F02003002B01D0012300E000231846BD4680BC75
:401E4000704700BF00E100E080B400AF034B20221A6000BFBD4680BC704700BF80E100E080B500AF064B1B78002B04D100F00AF8034B01221A7000F03BF800BF80BD00BFF6
:401E8000B481FF1F80B582B000AF164B1B78DBB223F03F03FB71134AFB7943F02203DBB21370114A104B1B78DBB243F00103DBB213700E4A0D4B1B78DBB243F00103DBB28D
:401EC000137045F6BF5000F033F845F6BF5000F04FF841F26F7000F05BF800BF0837BD4680BD00BF7B6400409A6400409B64004080B400AF054A054B1B78DBB263F07F0314
:401F0000DBB2137000BFBD4680BC70477B64004080B400AF054A054B1B78DBB203F07F03DBB2137000BFBD4680BC70477B64004080B483B000AF0346FB80044AFB88138084
:401F400000BF0C37BD4680BC704700BF1468004080B400AF044B1B78044B1B889BB21846BD4680BC704700BF1A640040B468004080B483B000AF0346FB80044AFB8813807F
:401F800000BF0C37BD4680BC704700BF9468004080B483B000AF0346FB80044AFB88138000BF0C37BD4680BC704700BF5468004080B483B000AF044B1B78FB71FB79184607
:401FC0000C37BD4680BC70477B64004080B483B000AF0346FB71044AFB79137000BF0C37BD4680BC704700BF7B64004080B400AF034B1B889BB21846BD4680BC704700BF6F
:402000009468004080B500AFFFF7F0FF03461A46074B9A80FFF79CFF03461A46044B5A80FFF7C6FF03461A46014B9A7100BF80BDB881FF1F80B500AF084B9B881846FFF767
:4020400097FF064B5B881846FFF772FF034B9B791846FFF7BBFF00BF80BD00BFB881FF1F80B500AF094B1B78DBB25BB2002B03DA074B01221A7002E0054B00221A70FFF70F
:4020800047FFFFF7BFFF00BF80BD00BF7B640040B881FF1F80B500AFFFF7CCFF034B1B78002B01D0FFF724FF00BF80BDB881FF1F80B500AF084B10221A70084B00221A7015
:4020C000064B064A1278D2B21A70022000F050F800F09EF800BF80BD285800402958004080B400AF094A094B1B78DBB243F00403DBB21370064A064B1B78DBB243F004035B
:40210000DBB2137000BFBD4680BC7047A8430040B843004080B500AF074B1B78002B04D1FFF7C6FF044B01221A70FFF7D9FF782000F05EF800BF80BDC081FF1F80B400AF0A
:40214000094A094B1B78DBB223F00403DBB21370064A064B1B78DBB223F00403DBB2137000BFBD4680BC7047A8430040B843004080B483B000AF0346FB710C4A0B4B1B785E
:40218000DBB223F00203DBB213700849074B1B78DAB2FB7903F00203DBB21343DBB20B7000BF0C37BD4680BC704700BF2858004080B582B000AF0346FB710C4A0B4B1B78D0
:4021C000DBB223F00403DBB213700849074B1B78DAB2FB7903F00403DBB21343DBB20B7000F016F800BF0837BD4680BD2958004080B483B000AF0346FB71044AFB79137000
:4022000000BF0C37BD4680BC704700BF825B004080B483B000AF104B1B78DBB203F00C035B08FB710D4B1B78DBB203F00403DBB2002B02D0FB790133FB71094AFB7903F19D
:40224000924303F594731B78DBB2137000BF0C37BD4680BC704700BF28580040295800400A46004080B500AF094B02221A70094B0C221A70084B01221A70002000F07AF8AB
:40228000032000F099F8022000F058F800BF80BD08580040095800400A58004080B400AF0D4A0D4B1B78DBB243F00403DBB213700A4A0A4B1B78DBB243F00403DBB213702A
:4022C000074A074B1B78DBB263F07F03DBB2137000BFBD4680BC7047A9430040B94300407758004080B500AF064B1B78002B04D1044B01221A70FFF7B5FFFFF7CFFF00BF19
:4023000080BD00BFC181FF1F80B400AF094A094B1B78DBB223F00403DBB21370064A064B1B78DBB223F00403DBB2137000BFBD4680BC7047A9430040B943004080B485B0FC
:4023400000AF0346FB710A4B1B78DBB223F00303FB73FB7903F00303DAB2FB7B1343FB73034AFB7B137000BF1437BD4680BC70470958004080B483B000AF0346FB71FB79A4
:40238000072B11D80B4A0B4B1B78DBB223F07003DBB213700749074B1B78DAB2FB791B01DBB21343DBB20B7000BF0C37BD4680BC704700BF0A58004080B483B000AF0346AD
:4023C000FB71FB79032B11D80B4A0B4B1B78DBB223F00C03DBB213700749074B1B78DAB2FB799B00DBB21343DBB20B7000BF0C37BD4680BC704700BF0A58004080B400AFF2
:4024000000BFBD4680BC704780B400AF00BFBD4680BC704780B500AF094B1B78DBB203F00403002B05D0074B01221A70FFF76CFF02E0044B00221A70FFF7E0FF00BF80BDEF
:40244000A9430040C481FF1F80B500AFFFF7DCFF034B1B78012B01D1FFF720FF00BF80BDC481FF1F80B500AF064B00221A70064B00221A70042000F071F8002000F04EF814
:4024800000BF80BD205800402158004080B400AF094A094B1B78DBB243F00103DBB21370064A064B1B78DBB243F00103DBB2137000BFBD4680BC7047A8430040B84300409B
:4024C00080B500AF074B1B78002B04D1FFF7CAFF044B01221A70FFF7D9FF802000F05EF800BF80BDC881FF1F80B400AF094A094B1B78DBB223F00103DBB21370064A064BCF
:402500001B78DBB223F00103DBB2137000BFBD4680BC7047A8430040B843004080B483B000AF0346FB710C4A0B4B1B78DBB223F00203DBB213700849074B1B78DAB2FB7944
:4025400003F00203DBB21343DBB20B7000BF0C37BD4680BC704700BF2058004080B582B000AF0346FB710C4A0B4B1B78DBB223F00C03DBB213700849074B1B78DAB2FB790A
:4025800003F00C03DBB21343DBB20B7000F016F800BF0837BD4680BD2058004080B483B000AF0346FB71044AFB79137000BF0C37BD4680BC704700BF805B004080B483B0F1
:4025C00000AF0B4B1B78DBB203F00C039B08DBB20633FB71074AFB7903F1924303F590731B78DBB2137000BF0C37BD4680BC7047205800400846004080B400AF074B1B78AD
:40260000DBB203F02003002B04D1054B1B78DAB2044B5A7000BFBD4680BC704721580040805B0040CC81FF1F80B400AF154B1B78DBB203F02003002B1FD1134B1B78DBB269
:4026400003F00803002B14D00F4A0F4B1B78DBB223F00803DBB213700C4B0D4A52781A70094A094B1B78DBB243F00803DBB2137003E0064B064A52781A7000BFBD4680BC5F
:40268000704700BF21580040875A0040805B0040CC81FF1F80B500AF094B1B78DBB203F00103002B03D0074B01221A7002E0054B00221A70FFF718FFFFF79EFF00BF80BD7E
:4026C000A8430040CC81FF1F80B500AFFFF7ACFF064B1B78012B07D1FFF7D8FE044B1B78DBB21846FFF75AFF00BF80BDCC81FF1F805B004080B582B002AF374B01221A7026
:40270000364B00221A70102001F00CFA102001F0EFFA07211D2002F017F8314B04221A70304B00221A70304B00221A702F4A2F4B1B78DBB243F01803DBB213702C4B002251
:402740001A702C4B00221A702B4B00221A702B4B0A221A702A4B00221A702A4B00221A70294B12221A70294B13221A70284B00221A70284B14221A70012300930C234FF43C
:40278000004248F65C71052000F09AFB022300930C234FF4004248F6B651042000F090FB1D4A0D4B1B78DBB2013B1C499B000B449B7813701A4A084B1B78DBB2013B17495F
:4027C00031F823301380044B1B78DBB2184600F017FA00BFBD4680BDD480FF1FD081FF1F96580040975800409E580040075B004093580040885B0040895B0040805800405D
:40280000815800408358004088580040895800408D580040014E00400E4E0040D881FF1F0C4E004080B582B000AF04F05DFA0346FB71444B1B78BB71434A434B1B78DBB223
:4028400043F00103DBB213703F4A3F4B1B78DBB243F01003DBB213703C4A3C4B1B78DBB243F00103DBB21370384A384B1B78DBB243F01003DBB21370354A354B1B78DBB27A
:4028800043F00203DBB21370324A324B1B78DBB243F00203DBB213702F4A2F4B1B78DBB243F00303DBB21370032001F011FF284A274B1B78DBB223F00203DBB21370254A54
:4028C000244B1B78DBB223F00203DBB21370234A224B1B78DBB243F00603DBB21370204B7A221A701F4A1F4B1B78DBB243F00103DBB213701C4A1C4B1B78DBB243F00103EC
:40290000DBB21370194A194B1B78DBB243F00203DBB21370164A164B1B78DBB243F00203DBB21370134B4FF000521A60124B4FF000521A60FB79184604F0DAF900BF0837C7
:40294000BD4680BDD480FF1FAA430040BA430040F8460040F9460040915800407758004082580040A1430040B1430040A2430040B243004080E200E000E100E080B500AF53
:40298000084B1B78002B09D1074B1B78DBB2002B01D1FFF7AFFE034B01221A70FFF742FF00BF80BDD281FF1FD381FF1F80B582B000AF04F099F90346FB714D4A4C4B1B78F7
:4029C000DBB223F00103DBB213704A4A494B1B78DBB243F00403DBB21370474A464B1B78DBB243F00203DBB21370444A434B1B78DBB243F00203DBB21370414A404B1B78DA
:402A0000DBB223F00303DBB213703E4A3D4B1B78DBB223F00803DBB21370032001F058FE354A354B1B78DBB223F00203DBB21370324A324B1B78DBB223F00203DBB2137090
:402A4000314A314B1B78DBB223F01003DBB213702D4A2D4B1B78DBB223F00103DBB213702A4A2A4B1B78DBB223F00103DBB21370264A264B1B78DBB223F01003DBB213706C
:402A8000234A234B1B78DBB223F00603DBB21370204A204B1B78DBB223F00103DBB213701D4A1D4B1B78DBB223F00103DBB213701A4A1A4B1B78DBB223F00803DBB21370A6
:402AC000174A174B1B78DBB223F00203DBB21370144A144B1B78DBB223F00203DBB21370FB79184604F004F900BF0837BD4680BD004E0040014E0040F8460040F9460040AB
:402B00009158004092580040AA430040BA43004077580040A1430040B143004082580040A2430040B243004080B485B000AF0346FB710B4B1B78DBB223F00C03FB73FB79B6
:402B40009B00DBB203F00C03DAB2FB7B1343FB73034AFB7B137000BF1437BD4680BC70479B58004080B400AF054A054B1B78DBB243F00103DBB2137000BFBD4680BC70474E
:402B8000004E004080B483B000AF174B1B78DBB203F003037B717B79012B03D8134B1B88FB8011E0114B1B78DBB2FB80104B1B78DBB29BB21B029AB2FB881343FB807B7932
:402BC000032B01D10B4B1B780B4B1B78DBB2002B02D00A4B00221A70B7F9063018460C37BD4680BC704700BF144E0040104E0040114E0040124E0040D181FF1FD081FF1FDE
:402C000080B582B000AF0346FB716A4B00221A70FB79012B63D1684B38221A70674B06221A70674B09221A70664B00221A70664B00221A70654B1F221A70654B00221A70A1
:402C4000644B00221A70644B00221A70634B01221A70634B14221A70624B04221A70624B09221A70614B00221A70614B22221A70604B24221A70604B01221A705F4B0222A3
:402C80001A705F4B22221A705E4B28221A705E4BEB221A70442000F0CBF95C4B58221A705B4B00221A705B4B01221A705A4B01221A705A4B00221A70594B0A221A70594B4C
:402CC0004FF47A721A600121072000F06DFE01211D2000F04FFF54491D2001F00DFDFB79022B63D1344B38221A70344B06221A70334B09221A70334B00221A70324B0022B0
:402D00001A70324B1F221A70314B00221A70314B00221A70304B00221A70304B01221A702F4B14221A702F4B09221A702E4B0A221A702E4B00221A702D4B11221A702D4BB8
:402D400012221A702C4B01221A702C4B02221A702B4B22221A702B4B28221A702A4BEB221A70442000F064F9284B58221A70284B00221A70274B05221A70274B01221A7029
:402D8000264B00221A70264B0A221A70254B4FF4FA621A600121072000F006FE01211D2000F0E8FE21491D2001F0A6FC00BF0837BD4680BDD181FF1F004E0040024E0040CE
:402DC000034E0040044E0040054E0040064E0040084E0040094E00400A4E0040144E0040845800408558004086580040875800408A5800408B5800408C5800408E5800401D
:402E00008F580040905800409158004094580040955800409A5800409B5800409C5800409D580040004A0020793100008531000080B582B000AF03460A46FB711346BB7189
:402E4000FB79002B29D0FB79022B26D8164B1B78002B02D1154B01221A70154AFB791370FFF7A4FDFB791846FFF7CAFE114AFB79013B11499B000B449B7813700F4AFB79ED
:402E8000013B0D4931F823301380BB79012B07D1FFF774FDFFF766FE02E0002001F0EAFB00BF0837BD4680BDD281FF1FD381FF1FD480FF1F0E4E0040D881FF1F0C4E004060
:402EC00090B587B000AF0446084611461A462346FB710346BB800B467B801346BB7197F82830002B00F08B8097F82830022B00F28680FB79013B092B4AD801A252F823F00F
:402F0000292F0000912F0000912F0000292F0000912F0000912F0000432F00005D2F0000912F0000772F0000BB790F2B04D9374B1B78DBB2FB752EE0354B1B78DBB2FB7502
:402F400029E0BB790F2B04D9324B1B78DBB2FB7521E0314B1B78DBB2FB751CE0BB790F2B04D92E4B1B78DBB2FB7514E02C4B1B78DBB2FB750FE0BB790F2B04D9294B1B7857
:402F8000DBB2FB7507E0284B1B78DBB2FB7502E00023FB7500BFBA8897F917305B0113443B617B883A6902FB03F3FB60FB68DB0BBB82BB790D2B12D8BA8ABB79C3F10E0381
:402FC00042FA03F3BB8297F82830013BBA790132D1B2164A9B0013440A469A7007E097F82830013B114A9B0013440F229A7097F82830013B0D49BA8A21F8232002E00020FD
:4030000001F038FB00BF1C37BD4690BD180100491C010049190100491D0100491A0100491E0100491B0100491F010049D881FF1F80B584B000AF0346FB7103F055FE03460B
:40304000FB73174A164B1B78DBB243F00303DBB21370144A134B1B78DBB243F00303DBB21370114AFB791370032001F031FB0C4A0B4B1B78DBB223F00303DBB21370094AB8
:40308000084B1B78DBB223F00303DBB21370FB7B184603F02DFE00BF1037BD4680BD00BFF8460040F94600409258004080B400AF044B1B78DAB2044B5A7000BFBD4680BCEE
:4030C000704700BF004E0040D880FF1F80B400AF034B044A52781A7000BFBD4680BC7047004E0040D880FF1F80B500AF144B1B78DBB203F00103002B1AD0114B1B78DBB2DF
:4031000003F01003002B13D00E4B01221A700E4B1B78DBB203F00103002B06D0094B1B7843F00203DAB2074B1A70FFF73FFC02E0044B00221A70FFF7B9FF00BF80BD00BF06
:40314000AA430040D880FF1F004E004080B500AFFFF7BCFF074B1B78002B09D0FFF762FB044B1B7803F00203002B01D0FFF7FAFC00BF80BDD880FF1F80B400AF00BFBD4674
:4031800080BC704780B400AF00BFBD4680BC704780B500AF00F006FE034B1B78FF2B01D100F07CF800BF80BDEC80FF1F80B500AF054B1B780121184600F054FF00F0F0FE7D
:4031C00000F00EFE00BF80BDE181FF1F80B500AF064B1B78002B04D1FFF7DAFF034B01221A70FFF7E3FF00BF80BD00BFE081FF1F80B500AF00F0EEFE044B1B78184600F0C3
:4032000077FF00F007FE00BF80BD00BFE181FF1F80B584B000AF0346FB80FB88DBB203F00F03BB73FB881B099BB27B73FB88B3F57F6F02D9002001F01DFA7B7BFF2B0DD1CD
:403240000023FB7306E0FB7B134AFF21D154FB7B0133FB73FB7B0F2BF5D919E00023FB7313E0FA7BBB7BC3F110039A4204DAFB7B09497A7BCA5405E0FB7B7A7B0132D1B29F
:40328000054AD154FB7B0133FB73FB7B0F2BE8D900BF1037BD4680BDDC80FF1F80B500AF4FF4804341F6FF720121012000F048FD03461A46114B1A7001F026F803461A4600
:4032C0000F4B1A700E4B18780D4B1A780123102101F048F80A4B1B780A4A91B245F68332184601F07FF8054B1A78054B1B781946104600F09BFF00BF80BD00BFE181FF1F1D
:40330000EC80FF1FDC80FF1F80B500AF094B1B78DBB203F00803002B03D0074B01221A7002E0054B00221A70FFF762FF00F014F800BF80BDA8430040E481FF1F80B500AF77
:4033400000F010F8034B1B78012B01D1FFF72EFF00BF80BDE481FF1F80B500AF00F0D2FD00BF80BD80B500AF00F0E4FD00BF80BD80B582B000AF0023FB7106E0FB79184627
:40338000FEF7F0F9FB790133FB71FB79012BF5D9034BFF221A7000BF0837BD4680BD00BFED80FF1F80B582B000AF0346FB71FFF7DFFFFB791846FEF79FF9034AFB791370EA
:4033C00000BF0837BD4680BDED80FF1F80B582B000AF0023FB7106E0FB791846FEF752F9FB790133FB71FB79002BF5D0034BFF221A7000BF0837BD4680BD00BFEE80FF1F6D
:4034000080B582B000AF0346FB71FFF7DFFFFB791846FEF701F9034AFB79137000BF0837BD4680BDEE80FF1F80B582B000AF0023FB7106E0FB791846FEF7B4F8FB79013378
:40344000FB71FB79022BF5D9034BFF221A7000BF0837BD4680BD00BFEF80FF1F80B582B000AF0346FB71FFF7DFFFFB791846FEF763F8034AFB79137000BF0837BD4680BDAB
:40348000EF80FF1F80B500AF064B00221A70064B00221A70042000F071F8002000F04EF800BF80BD245800402558004080B400AF094A094B1B78DBB243F00203DBB2137067
:4034C000064A064B1B78DBB243F00203DBB2137000BFBD4680BC7047A8430040B843004080B500AF074B1B78002B04D1FFF7CAFF044B01221A70FFF7D9FF802000F05EF870
:4035000000BF80BDE581FF1F80B400AF094A094B1B78DBB223F00203DBB21370064A064B1B78DBB223F00203DBB2137000BFBD4680BC7047A8430040B843004080B483B0CE
:4035400000AF0346FB710C4A0B4B1B78DBB223F00203DBB213700849074B1B78DAB2FB7903F00203DBB21343DBB20B7000BF0C37BD4680BC704700BF2458004080B582B000
:4035800000AF0346FB710C4A0B4B1B78DBB223F00C03DBB213700849074B1B78DAB2FB7903F00C03DBB21343DBB20B7000F016F800BF0837BD4680BD2458004080B483B027
:4035C00000AF0346FB71044AFB79137000BF0C37BD4680BC704700BF815B004080B483B000AF0B4B1B78DBB203F00C039B08DBB20633FB71074AFB7903F1924303F598735B
:403600001B78DBB2137000BF0C37BD4680BC7047245800400946004080B400AF074B1B78DBB203F02003002B04D1054B1B78DAB2044B5A7000BFBD4680BC7047255800403F
:40364000815B0040E881FF1F80B400AF154B1B78DBB203F02003002B1FD1134B1B78DBB203F00803002B14D00F4A0F4B1B78DBB223F00803DBB213700C4B0D4A52781A7085
:40368000094A094B1B78DBB243F00803DBB2137003E0064B064A52781A7000BFBD4680BC704700BF255800408F5A0040815B0040E881FF1F80B500AF094B1B78DBB203F0D5
:4036C0000203002B03D0074B01221A7002E0054B00221A70FFF718FFFFF79EFF00BF80BDA8430040E881FF1F80B500AFFFF7ACFF064B1B78012B07D1FFF7D8FE044B1B7881
:40370000DBB21846FFF75AFF00BF80BDE881FF1F815B004080B582B000AF0023FB7106E0FB791846FEF778F8FB790133FB71FB79012BF5D9034BFF221A7000BF0837BD4672
:4037400080BD00BFF080FF1F80B582B000AF0346FB71FFF7DFFFFB791846FEF73DF8034AFB79137000BF0837BD4680BDF080FF1F80B500AF032000F063F800BF80BD00BF07
:4037800080B400AF0D4A0D4B1B78DBB243F06003DBB213700A4A0A4B1B78DBB243F00203DBB21370074A074B1B78DBB243F00203DBB2137000BFBD4680BC704777580040D1
:4037C000A4430040B443004080B500AF064B1B78002B04D1044B01221A70FFF7C9FFFFF7CFFF00BF80BD00BFEA81FF1F80B400AF104A104B1B78DBB223F00203DBB2137001
:403800000D4A0D4B1B78DBB223F00203DBB21370084B1B78DBB2002B07D1084A074B1B78DBB223F06003DBB2137000BFBD4680BC704700BFA4430040B443004077580040F0
:4038400080B483B000AF0346FB710C4A0B4B1B78DBB223F00303DBB213700849074B1B78DAB2FB7903F00303DBB21343DBB20B7000BF0C37BD4680BC704700BF5A580040C5
:4038800080B400AF00BFBD4680BC704780B400AF00BFBD4680BC704780B500AF094B1B78DBB203F00203002B05D0074B01221A70FFF79CFF02E0044B00221A70FFF7E0FF46
:4038C00000BF80BDA4430040EC81FF1F80B500AFFFF7DCFF034B1B78012B01D1FFF750FF00BF80BDEC81FF1F80B582B000AF786000F04EF8786800F009F8072000F018F89E
:4039000000F028F800BF0837BD4680BD80B485B000AF7860054B1B68FB60FB6850337A681A6000BF1437BD4680BC704708ED00E080B483B000AF0346FB71054AFB795B011A
:40394000DBB2137000BF0C37BD4680BC704700BF04E400E080B400AF034B10221A6000BFBD4680BC704700BF00E100E080B400AF064B1B6803F01003002B01D0012300E0E9
:4039800000231846BD4680BC704700BF00E100E080B400AF034B10221A6000BFBD4680BC704700BF80E100E080B584B000AF03460A46FB8013467B7100F0CEF80346FB73A0
:4039C00000F0A4F80346BB81FA88BB899A4200F08880464B1B78DBB203F00203FB72FB7B002B20D1BB89002B02D0FB88002B1AD1BB89002B0BD13E4AFB8813803D4A3D4BA2
:403A00001B78DBB223F04003DBB2137069E0394A384B1B78DBB243F04003DBB21370344AFB8813805DE0FB7A002B33D0324B00221A70324B02221A70314B00221A70314AA0
:403A4000304B1B78DBB203F07F03DBB21370294B1B78DBB203F00803002B02D0FB88002B18D1294ABB891380234B07221A7000BF214B1B78DBB203F00103002BF8D11B4AFA
:403A80001A4B1B78DBB223F00203DBB213701A4B00221A70154B1B78DBB203F00203002B13D0194AFB881380134A7B79002B01D0032300E00123137000BF0F4B1B78DBB216
:403AC00003F00103002BF8D10BE0094AFB8813800649064B1B78DAB2FB7A1343DBB20B70FFE700BF1037BD4680BD00BFA243004084400040864000400140004010400040CA
:403B000014400040084000400240004080B400AF034B1B889BB21846BD4680BC704700BF8440004080B483B000AF0346FB710949084B1B78DBB25AB297F9073023F007032F
:403B40005BB213435BB2DBB20B7000BF0C37BD4680BC70478640004080B400AF044B1B78DBB203F00703DBB21846BD4680BC70478640004080B584B000AF03460A46FB806D
:403B800013467B7100F0CEF80346FB7300F0A4F80346BB81FA88BB899A4200F08880464B1B78DBB203F00103FB72FB7B002B20D1BB89002B02D0FB88002B1AD1BB89002BB8
:403BC0000BD13E4AFB8813803D4A3D4B1B78DBB223F04003DBB2137069E0394A384B1B78DBB243F04003DBB21370344AFB8813805DE0FB7A002B33D0324B00221A70324BA7
:403C000001221A70314B00221A70314A304B1B78DBB203F07F03DBB21370294B1B78DBB203F00803002B02D0FB88002B18D1294ABB891380234B07221A7000BF214B1B78C5
:403C4000DBB203F00103002BF8D11B4A1A4B1B78DBB223F00103DBB213701A4B00221A70154B1B78DBB203F00103002B13D0194AFB881380134A7B79002B01D0032300E059
:403C80000123137000BF0F4B1B78DBB203F00103002BF8D10BE0094AFB8813800649064B1B78DAB2FB7A1343DBB20B70FFE700BF1037BD4680BD00BFA143004000410040C3
:403CC00002410040014000401440004010400040084000400240004080B400AF034B1B889BB21846BD4680BC704700BF0041004080B483B000AF0346FB710949084B1B78DA
:403D0000DBB25AB297F9073023F007035BB213435BB2DBB20B7000BF0C37BD4680BC70470241004080B400AF044B1B78DBB203F00703DBB21846BD4680BC70470241004060
:403D400090B585B002AF0446084611461A462346FB710346BB710B46BB8013467B80104B00221A700E4B1878BA79F9790023019300230093002300F077FA094B1B787A8830
:403D8000B988184600F016FA054B1B780221184600F0DEF9024B1B7818460C37BD4690BDF180FF1F80B500AF0A4B00221A700A4B00221A70094A094B1B78DBB243F00803EE
:403DC000DBB21370042000F05FF8022000F03CF800BF80BD2C5800402D5800409F5A004080B400AF094A094B1B78DBB243F00803DBB21370064A064B1B78DBB243F008034D
:403E0000DBB2137000BFBD4680BC7047A8430040B843004080B400AF094A094B1B78DBB223F00803DBB21370064A064B1B78DBB223F00803DBB2137000BFBD4680BC7047DB
:403E4000A8430040B843004080B483B000AF0346FB710C4A0B4B1B78DBB223F00203DBB213700849074B1B78DAB2FB7903F00203DBB21343DBB20B7000BF0C37BD4680BCC3
:403E8000704700BF2C58004080B582B000AF0346FB710C4A0B4B1B78DBB223F00C03DBB213700849074B1B78DAB2FB7903F00C03DBB21343DBB20B7000F006F800BF0837F0
:403EC000BD4680BD2C58004080B483B000AF0B4B1B78DBB203F00C039B08DBB20633FB71074AFB7903F1924303F59C731B78DBB2137000BF0C37BD4680BC70472C58004067
:403F00000B46004080B400AF074B1B78DBB203F02003002B04D1054B1B78DAB2044B5A7000BFBD4680BC70472D580040835B0040F081FF1F80B400AF154B1B78DBB203F080
:403F40002003002B1FD1134B1B78DBB203F00803002B14D00F4A0F4B1B78DBB223F00803DBB213700C4B0D4A52781A70094A094B1B78DBB243F00803DBB2137003E0064B2C
:403F8000064A52781A7000BFBD4680BC704700BF2D5800409F5A0040835B0040F081FF1F80B400AF094A094B1B78DBB243F00403DBB21370064A064B1B78DBB243F004034F
:403FC000DBB2137000BFBD4680BC7047A2430040B243004080B400AF094A094B1B78DBB223F00403DBB21370064A064B1B78DBB223F00403DBB2137000BFBD4680BC70472E
:40400000A2430040B243004080B483B000AF134B7F221A70124B80221A707F23FB710CE0FB79DB0003F1804303F5F043FA79013AD2B21A70FB79013BFB71FB79002BEFD19C
:40404000FB79DB0003F1804303F5F04300221A7000BF0C37BD4680BC704700BFF580FF1FF480FF1F80B485B000AF03460A46FB711346BB710123FB60FB79172B2FD8BB7975
:40408000002B0ED0FB791A01184B1344FA791101164A0A441278D2B242F02002D2B21A700DE0FB791A01114B1344FA7911010F4A0A441278D2B222F02002D2B21A70FB79EC
:4040C0001A010A4B1344FA791101084A0A441278D2B242F00102D2B21A700023FB60FB6818461437BD4680BC704700BF1070004080B485B000AF0346FB710123FB60FB79C4
:40410000172B1DD8FB791A01104B1344FA7911010E4A0A441278D2B222F00102D2B21A70FB791A01094B1344FA791101074A0A441278D2B222F02002D2B21A700023FB607F
:40414000FB6818461437BD4680BC70471070004080B485B000AF03460A46FB711346BB710123FB60FB79172B1BD8FB791A01104B13441B78DBB223F00E03FB72FB791A0132
:404180000B4B1344BA795200D2B252B202F00E0251B297F90B200A4352B2D2B21A700023FB60FB6818461437BD4680BC704700BF1070004080B485B000AF0346FB710B4609
:4041C000BB8013467B800123FB60BB8841F6FF72934202D14FF40053BB807B8841F6FF72934202D14FF400537B80FB79172B17D8FB79DB0003F1804303F5EC430433BB6045
:40420000BB68BA881A80FB79DB0003F1804303F5EC430633BB60BB687A881A800023FB60FB6818461437BD4680BC704780B485B000AF03460A46FB711346BB710123FB609E
:40424000FB79172B07D8FB791A01064B1344BA795A720023FB60FB6818461437BD4680BC704700BF1070004090B484B000AF0446084611461A462346FB710346BB710B4663
:404280007B7113463B710123FB60FB79172B34D8FB79DB0003F1804303F5EC43BA7902F07F02D1B27A79D201D2B20A43D2B21A70FB79DB0003F1804303F5EC433A7E1201D9
:4042C000D1B23A7902F00F02D2B20A43D2B25A70FB79DB0003F1804303F5EC433A7F02F00F02D2B29A70FB79DB0003F1804303F5EC430022DA700023FB60FB6818461037D0
:40430000BD4690BC704700BF80B582B000AFFF23FB7102F0E9FC0346BB71104B1B78182B12D90F4B1B78FB710C4B1B78013BDAB20A4B1A70FB79DB0003F1804303F5F04391
:404340001B78DAB2064B1A70BB79184602F0D0FCFB7918460837BD4680BD00BFF480FF1FF580FF1F90B484B000AF0446084611461A462346FB710346BB800B46BB71134619
:40438000FB700123FB6097F90730002B23DBBB8823F47F6323F00F039BB2002B1BD1FB79DB0003F1804303F5F043BB60BB68BA881A80FB79DB0003F1804303F5F043BA79AF
:4043C0009A70FB79DB0003F1804303F5F043FA78DA700023FB60FB6818461037BD4690BC704700BF80B485B000AF0346FB710B46BB8013467B800123FB6097F90730002B5D
:4044000017DBFB79DB0003F1804303F5F0430433BB60BB68BA881A80FB79DB0003F1804303F5F0430633BB60BB687A881A800023FB60FB6818461437BD4680BC704700BF85
:4044400080B582B000AF00F005FA4FF0FF337B6000F034FB0346002B24D1012000F0FCFA0346072B1BD10221124800F017FA0346022B0DD100237B6002E0012000F028F911
:404480000D4B1B78DBB203F00203002BF5D006E0094B1B78DBB203F00203002BE3D000F041FB01E004237B607B6818460837BD4680BD00BF044A00202247004080B582B060
:4044C00000AF00F0C7F900F0F9FA0346002B23D100F050FB78607B68072B1AD102E0012000F0F6F8104B1B78DBB203F00203002BF5D00D4B1B78DBB203F00203002B08D048
:40450000094B1B78DBB29B08DBB2002B01D100237B6000F007FB01E004237B607B6818460837BD4680BD00BF2247004080B582B000AFFFF7C3FF78607B68002B02D1FFF762
:404540007FFF78607B6818460837BD4680BD00BF80B582B000AF02F0C7FB0346FB71194A184B1B78DBB243F00803DBB21370164A154B1B78DBB243F00803DBB21370134B27
:40458000C8221A70124A124B1B78DBB243F01003DBB213700F4A0F4B1B78DBB243F01003DBB2137000BF0C4B1B78DBB203F02003002BF8D0FB79184602F09AFB00BF083799
:4045C000BD4680BDA0430040B043004001470040AC430040BC4300400047004080B582B000AF02F081FB0346FB710C4A0B4B1B78DBB223F01003DBB21370094A084B1B7834
:40460000DBB223F01003DBB21370FB79184602F06FFB00BF0837BD4680BD00BFAC430040BC43004080B400AF094A094B1B78DBB243F00103DBB2137000BF054B1B78DBB2FE
:4046400003F00203002BF8D000BFBD4680BC70470247004080B400AF054A054B1B78DBB223F00103DBB2137000BFBD4680BC70470247004080B483B000AF0346FB7101BE80
:4046800000BF0C37BD4680BC704700BF80B582B000AF786008E00C4B1B68184602F01CFB7B68A3F500437B607B68B3F5004FF2D8064B1B687A6802FB03F3184602F00CFBEF
:4046C00000BF0837BD4680BD0881FF1F0081FF1F80B582B000AF0346FB80FB88054A127802FB03F3184602F0F7FA00BF0837BD4680BD00BF0481FF1F80B584B000AF0346CB
:404700003960FB710F4B1B68FB60FB791F2B02D90020FFF7AFFFFB7903F01F0310339B00FA6813441B68BB60FB7903F01F0310339B00FA6813443A681A60BB68184610371D
:40474000BD4680BD08ED00E080B582B000AF03460A46FB711346BB71BB79072B02D90020FFF788FFFB791F2B02D90020FFF782FFFB7903F01F0303F1604303F56443BA7984
:404780005201D2B21A7000BF0837BD4680BD00BF80B483B000AF7860264B1B78DBB21A467B681A60244B1B78DBB21B027A6812681A437B681A60214B1B78DBB21B047A6810
:4047C00012681A437B681A601D4B1B78DBB21B067A6812681A437B681A607B680433194A1278D2B21A60184B1B78DBB21A027B6804337968043109680A431A60134B1B78C9
:40480000DBB21A047B6804337968043109680A431A600F4B1B78DBB21A067B6804337968043109680A431A6000BF0C37BD4680BC704700BF0301004904010049EC4600409F
:40484000020100490101004900010049050100490601004980B582B000AF02F045FA0346FB710C4A0B4B1B78DBB243F00803DBB21370094A084B1B78DBB243F00803DBB211
:404880001370FB79184602F033FA00BF0837BD4680BD00BFA0430040B043004080B584B000AF78600B46FB700023FB7313E00120FFF70EFF0C4B1B78DBB203F00103002B44
:4048C000F5D0FB7B7A681344084A1278D2B21A70FB7B0133FB73FA7BFB789A42EAD3FB7B18461037BD4680BD224700402047004080B485B000AF3A601A460346FB710B46FE
:40490000BB801346BB710723FB60FB793E2B02D8BB791F2B05D9FB793F2B45D9BB790F2B42D8254B1B78DBB203F00203002B38D0224BB6221A70214BD4221A701F4B012298
:404940001A701D4B1B78DBB203F00203002B25D11A4AFB791370194ABB881B0A9BB2DBB203F00103DBB21370144BBA88D2B21A70124ABB79013BDBB213700023FB7208E002
:404980000E49FB7A3A6813441B780B70FB7A0133FB72FA7ABB799A42F2D307E00923FB6004E00423FB6001E00123FB60FB6818461437BD4680BC704722470040204700403F
:4049C00090B484B000AF0446084611461A462346FB710346BB800B46BB711346FB700723FB601B4B1B78DBB203F00203002B26D0184BB6221A70174BD8221A70154B052251
:404A00001A70134B1B78DBB203F00203002B13D1104AFB7913700F4ABB881B0A9BB2DBB213700C4BBA88D2B21A700A4ABB791370084AFB78137004E00923FB6001E004238B
:404A4000FB60FB6818461037BD4690BC704700BF224700402047004080B485B000AF0346FB710723FB60134B1B78DBB203F00203002B16D0104BB6221A700F4BE1221A7041
:404A80000D4B0E221A700B4B1B78DBB203F00203002B03D1084AFB79137004E00923FB6001E00423FB60FB6818461437BD4680BC704700BF224700402047004080B582B0E8
:404AC00000AF04237B6002F00FF90346FB70124B1B78002B16D1104B01221A7000237B600E4B1B6803F00103002B0BD00B4A0B4B1B6823F00103136000BF00BF00BF084B2E
:404B000001221A60FB78184602F0F2F87B6818460837BD4680BD00BFF481FF1F04000840F881FF1F80B582B000AF02F0DDF80346FB710D4B00221A700C4B1B68012B0BD1BE
:404B40000B4A0B4B1B6843F00103136000BF00BF00BF064B00221A60FB79184602F0C8F800BF0837BD4680BDF481FF1FF881FF1F0400084080B483B000AF07237B600C4B89
:404B80001B78DBB203F00203002B09D0094BB6221A70084BE0221A70064B0D221A7001E004237B607B6818460C37BD4680BC7047224700402047004080B582B000AF03462E
:404BC0000A46FB711346BB71094B1B78002B04D100F010F8064B01221A70BA79FB791146184600F0D9F800BF0837BD4680BD00BFFC81FF1F80B582B000AF02F075F8034624
:404C0000FB71544A534B1B78DBB243F00103DBB21370514A504B1B78DBB243F00103DBB213704E4B01221A704D4B02221A704D4A4C4B1B78DBB203F07F03DBB21370002049
:404C4000FFF746FD484A484B1B78DBB223F00603DBB21370454A454B1B78DBB223F02003DBB21370404A404B1B78DBB243F00103DBB213700120FFF72BFD2820FFF728FDE7
:404C80003B4A3B4B1B78DBB203F07F03DBB21370374A374B1B78DBB223F04003DBB21370314A314B1B78DBB243F00203DBB213700220FFF70DFD2C4A2B4B1B78DBB243F0FB
:404CC0000403DBB213702B4B00221A702A4B00221A70FB79184602F00BF807211720FFF733FD26491720FFF707FD07211820FFF72BFD23491820FFF7FFFC07211520FFF708
:404D000023FD20491520FFF7F7FC07210020FFF71BFD1D490020FFF7EFFC07210120FFF713FD1A490120FFF7E7FC07210220FFF70BFD17490220FFF7DFFC07210C20FFF77E
:404D400003FD14490C20FFF7D7FC00BF0837BD4680BD00BFA5430040B54300409D60004009600040106000409443004012600040F85100408460004085600040495C0000AE
:404D8000315500003D5C0000555B00009D5B0000E95B0000555C000080B582B000AF03460A46FB711346BB712E4AFB7913702E4B00221A702D4B00221A702D4B00221A70BB
:404DC0002C4B00221A702C4B00221A702B4B00221A702B4B00221A702A4B4FF400021A60284B4FF080721A60264B4FF400121A60244B01221A60234B02221A60214B0422ED
:404E00001A60BB79002B02D0012B09D011E01E4A1D4B1B78DBB223F00103DBB2137011E0194A194B1B78DBB243F00103DBB2137008E0154A144B1B78DBB243F00103DBB211
:404E4000137000BF114B03221A70114B80221A70012001F041FF0F4B04221A7000BF0837BD4680BD214A0020244A0020404A0020434A0020384A0020424A0020454A002056
:404E8000204A002000E100E00960004028600040086000401260004080B400AF0F4B00221A700F4B00221A700E4B00221A700E4B00221A700D4B00221A700D4B00221A70DB
:404EC0000C4B00221A700C4B03221A700B4B80221A7000BFBD4680BC704700BF244A0020404A0020434A0020384A0020424A0020454A0020204A00202860004008600040D7
:404F000080B400AF034B1B78DBB21846BD4680BC704700BF434A002080B483B000AF0346FB71FA79064913465B0013449B000B4401331B78DBB218460C37BD4680BC7047F3
:404F4000484A002080B485B000AF0346FB710023FB81FB79002B1CD0FB79082B19D8104AFB791B0113441B78DBB29BB203F00F03FB81FB891B029AB20949FB791B010B44A3
:404F800001331B78DBB29BB21343FB81FB89023BFB81FB8918461437BD4680BC704700BFFC5F0040B0B485B000AF03463960FB711346BB80FB79002B6DD0FB79082B6AD8D5
:404FC000B988FA79364813465B0013449B00034406331B889BB2C3F5007399420CD9FA792F4913465B0013449B000B4406331B889BB2C3F50073BB802A4CF979BB881B0ABF
:405000009BB2D8B2FA79264D13465B0013449B002B4403331B78DBB20343DAB20B0123441A70204AFB79B988C9B21B01134401330A461A703B68002B13D00023FB810CE022
:405040001948FB79FA8939680A4412781B01034408331A70FB890133FB81FA89BB889A42EED3FA790E4913465B0013449B000B44013300221A700B48F979FA79084C13461C
:405080005B0013449B00234405331B78DAB20B01034402331A7000BF1437BD46B0BC7047484A0020FC5F00407060004080B584B000AF03463960FB711346BB803B68002B7E
:4050C00030D0FB79002B2DD0FB79082B2AD8FB791846FFF737FF03461A46BB88934205D9FB791846FFF72EFF034600E0BB88BB800023FB810DE0FB893A6813440D49FA7960
:4051000012010A4408321278D2B21A70FB890133FB81FA89BB889A42EDD3FB79184600F00BF801E00023BB80BB8818461037BD4680BD00BF7060004090B482B000AF03463D
:40514000FB71FB79002B1CD0FB79082B19D8FA790E4913465B0013449B000B44013300221A700B48F979FA79084C13465B0013449B00234405331B78DAB20B010344023389
:405180001A7000BF0837BD4690BC7047484A0020FC5F004080B582B000AF0023FB71314B1B79DBB2184600F067F80346BB712D4B1B78DBB25BB2002B15DA2A4B5B78DBB21C
:4051C000212B00D048E0284B07221A80BA791346DB009B1A254A1344234A536000F022FB0346FB7138E01F4B5B78DBB2202B02D0222B1AD030E01C4B07221A80BA79134675
:40520000DB009B1A194A1344174A5360BB79BA7917498A5CD2B242F00102D1B2144AD15400F07EFB0346FB7116E0BB790D4A9278D2B291B20F4A22F81310BB79BA790C49E2
:405240008A5CD2B242F00202D1B2094AD15400F005FC0346FB7100BFFB7918460837BD4680BD00BF006000402C4A00200C81FF1F084A00201C4A002080B485B000AF0346E4
:40528000FB710023FB73FF23BB7317E0FB7B104AD35C7B737A7B0F4913465B0013449B000B440A331B78DBB2FA799A4203D1FB7BBB730223FB73FB7B0133FB73FB7B012B0A
:4052C000E4D9BB7B18461437BD4680BC704700BF104A0020484A002080B582B000AF0023BB71224B00221A70214B00221A70204B00225A700023FB7110E0FB791D4AD35CBB
:405300007B717B79002B06D07B79082B03D87B791846FFF711FFFB790133FB71FB79012BEBD9154B1B78DBB2002B18D0114B1B78DBB2002B13D0114B1B78DBB2002B0ED018
:405340000D4B1B78DBB2082B09D80A4B1B78DBB2082B04D8094B1B78DBB2082B01D90123BB71BB7918460837BD4680BDFD81FF1F084A0020144A00200C4A0020104A0020BF
:4053800080B584B000AF78600B467B80144B1B781A46144B9B5CFB73FA7B134913465B0013449B000B4408331B889BB27A889A420CD9FA7B0C4913465B0013449B000B4428
:4053C00008331B887B800020FFF754F97A88FB7B79681846FFF7E6FD00BF1037BD4680BDFD81FF1F0C4A0020484A002080B582B000AF104B1B781A460F4B9B5C7B717A7943
:405400000E4913465B0013449B000B4401331B78DBB2012B06D17B791846FFF793FD0346FB8001E00023FB80FB8818460837BD4680BD00BFFD81FF1F144A0020484A0020C3
:4054400080B500AF054B1B781A46054B9B5CDBB21846FFF761FD0346184680BDFD81FF1F0C4A002080B584B000AF78600B467B80094B1B781A46094B9B5CFB737A88FB7BD5
:4054800079681846FFF712FE03467B807B8818461037BD4680BD00BFFD81FF1F144A002080B485B000AF78600B46FB701346BB707B68DB7803F00303FB737B689B785BB2D2
:4054C000002B1ADAFB7B032B0AD0BB7803F001031449FA78CA54BB7843F00103BB701BE0BB789B08DBB203F001030F49FA78CA54BB7843F00403BB700EE0FB7B032B0BD021
:40550000BB785B08DBB203F001030849FA78CA54BB7843F00203BB70BB7818461437BD4680BC70470C4A0020104A0020144A002080B582B000AF374B1B78BB71BB7903F01C
:405540001003002B62D00123FB7197F90630002B12DABB7903F00F03012B02D00023FB711CE000F061F82C4B1B78DBB25BB2002B14DA0023FB7111E0BB7903F04003002B71
:4055800002D000F095F809E0BB7903F02003002B02D000F0B3F801E00023FB71FB79002B34D01C4B1B78BB7197F90630002B2DDB1A4B1B78DAB21A4B1B78DBB21343BB7114
:4055C000184ABB791370174B1B78DBB2BA799A421CD1114B1B78FB710E4B1B78DBB223F07F03BB71BB79002B0AD10A4B0A4A1278D2B21A70074B1B78DBB203F00F03FB7121
:40560000054B1B78DBB2FA799A42E2D100BF0837BD4680BD28600040414A0020B64A0020444A00202960004080B582B000AF1D4B1B78FB711B4AFB7913701A4B1B78FB7173
:4056400097F90730002B03DA174AFB79137025E0022000F045FA154B1B78DBB203F06003202B08D0402B0BD0002B0ED100F0F8FA0346FB710CE001F03FFB0346FB7107E01A
:4056800001F000FB0346FB7102E00023FB7100BFFB79002B02D1044B03221A7000BF0837BD4680BD28600040414A00200060004080B500AF104B1B78DBB2062B19D801A234
:4056C00052F823F0F3560000F3560000E1560000F3560000E7560000F3560000ED56000000F0F8F806E000F0A7F903E000F0D2F900E000BF00BF80BD244A002080B500AF71
:40570000124B1B78DBB2062B1DD801A252F823F047570000475700002D5700004757000033570000475700003957000000F0D8F80AE000F027F907E0032000F0D1F9044BE3
:4057400003221A7000E000BF00BF80BD244A0020414A002080B483B000AF0023FB71294B1B78DBB29AB2284B1B889BB213449AB2254B1A8015E02549FB79254A5268127887
:40578000D2B2CA54224B5B680133214A5360FB790133FB711E4B1B889BB2013B9AB21C4B1A801B4B1B889BB2002B02D0FB79072BE1D9144B1B78DBB2082B02D0FB79002BF9
:4057C0000FD0144B1B78DBB283F07F03DB43DAB2104B1A70104B0F221A70104B02221A7005E00D4B02221A700C4B02221A700C4AFB791370034AFB79137000BF0C37BD4622
:4058000080BC7047204A0020224A0020006000402C4A0020B64A0020414A0020244A0020444A002080B582B000AF164B1B889BB2002B02D100F02EF81EE0134B02221A709D
:40584000124B00221A7000F06BF9114BDB79DBB29BB21B029AB20E4B9B79DBB29BB21343FB80084B1B889BB2FA889A4202D2054AFB881380FFF76EFF012318460837BD46BF
:4058800080BD00BF2C4A0020244A0020B64A00200060004080B400AF094B02221A70094B80221A70084B0F221A70084B00221A70074B00221A7001231846BD4680BC704720
:4058C000244A0020B64A0020414A0020204A0020444A002080B500AFFFF73CFF00BF80BD80B500AF0A4B1B78DBB29AB2094B1B889BB213449AB2074B1A80074B00221A7090
:40590000012000F0EDF8054B03221A7000BF80BD204A0020224A0020244A0020414A002080B582B000AF124B04221A70114B80221A7000F0F5F8104BDB79DBB29BB21B02F9
:405940009AB20D4B9B79DBB29BB21343FB800B4B1B889BB2FA889A4202D2084AFB881380074B0B221A70012318460837BD4680BD244A0020B64A0020006000402C4A0020F6
:40598000414A002080B483B000AF0023BB71234B1B78DBB203F00F03DBB2023BFB71FB799AB21F4B1B889BB213449AB21C4B1A8018E01C4B5B681C49BA798A5CD2B21A70A2
:4059C000184B5B680133174A5360BB790133BB71FB79013BFB71134B1B889BB2013B9AB2104B1A800F4B1B889BB2002B02D0FB79002BDED10D4AFB7913700D4B1B78DBB263
:405A000083F07F03DB43DAB2094B1A70094B0B221A7000BF0C37BD4680BC704729600040224A00202C4A002000600040444A0020B64A0020414A002080B500AF054B00228C
:405A40001A70012000F04CF8034B03221A7000BF80BD00BF244A0020414A002080B400AF084B06221A70084B06221A70074B80221A70074B00221A7001231846BD4680BC2C
:405A8000704700BF244A0020414A0020B64A0020444A002080B500AF0D4B1B78DBB2002B0AD00C4A0A4B1B78DBB263F07F03DBB21370074B00221A70074B00221A7001203B
:405AC00000F00EF8054B03221A7000BF80BD00BF424A002008600040244A0020414A002080B483B000AF0346FB710B4B9B68002B0CD0094B9B68FA791A70074B9B68074A44
:405B0000128892B25A80044B00229A6000BF0C37BD4680BC704700BF2C4A0020224A002080B400AF094B00221A80094B9B68002B07D0074B9B6800221A70054B9B680022A7
:405B40005A8000BFBD4680BC704700BF224A00202C4A002080B400AF0D4B01221A700D4B9B7C0D4B1B7BDBB203F00303012B08D0094BDB7BDBB283F07F03DB43DAB2064BBF
:405B8000DA73054B01225A7300BFBD4680BC70470B600040FC5F0040484A002080B400AF0E4B02221A700E4B93F822300D4B1B7EDBB203F00303012B08D00A4BDB7EDBB2D5
:405BC00083F07F03DB43DAB2064BDA76054B01225A7600BFBD4680BC704700BF0B600040FC5F0040484A002080B400AF104B04221A70104B93F832300F4B93F82430DBB2BA
:405C000003F00303012B0AD00B4B93F82730DBB283F07F03DB43DAB2074B83F82720064B012283F8252000BFBD4680BC704700BF0B600040FC5F0040484A002080B400AF6A
:405C400000BFBD4680BC704780B500AFFFF724F900BF80BD80B500AF01F02EF800BF80BD80B586B000AF0023FB75B04B1B78FB7100233B61AE4B00221A8097F90730002B78
:405C800080F2FD80A94B5B78DBB20A2B00F2168201A252F823F000BFD55D0000BD600000BD600000BD600000BD600000BD600000C55C0000BD600000495E0000BD6000005E
:405CC0005F5E0000994BDB78DBB2012B0ED100F049FEB860BB685B68954A5360944B12221A80FFF79FFD0346FB75E9E18F4BDB78DBB2022B25D18D4B9B78DBB2184600F0EC
:405D000009FEB860BB68002B00F0DA81BB685B68874A5360864B5B6803331B78DBB29BB21B029AB2824B5B6802331B78DBB29BB213439AB27E4B1A80FFF774FD0346FB754A
:405D4000BEE17A4BDB78DBB2032B3ED10023FB73784B3B6109E03B691B78BB71BB793A6913443B61FB7B0133FB73704B9B78DBB2FA7B9A4204D23B691B78DBB2002BEAD158
:405D80006A4B9B78DBB2002B0BD0684B9B78DAB2694B1B7C9A4204D1684800F0ABF9674B3B613B691B78DBB2002B00F089813B691B78DBB29AB25E4B1A805D4A3B6953606E
:405DC000FFF730FD0346FB757AE100F095FF0346FB7575E1FB7903F00303002B20D0022B00D030E0524B02221A80504B1B79DBB203F07F02524913465B0013449B000B4429
:405E000002331B78DAB24F4B1A704E4B00225A70474B4C4A5A60FFF705FD0346FB7512E0434B02221A80484B1B78DAB2454B1A70444B00225A703E4B424A5A60FFF7F2FC9A
:405E40000346FB7500BF42E1394B01221A80384B3E4A5A60FFF7E6FC0346FB7537E1344B01221A80314B1B79DBB21A46384B13442F4A5360FFF7D6FC0346FB7527E12B4B9A
:405E80005B78DBB2013B0A2B00F21C8101A252F823F000BFA15F0000C56000002F600000C5600000C15E0000C5600000C5600000C5600000D55E0000C56000005D5F000048
:405EC0001A4B9B78DAB2234B1A70FFF7C7FD0346FB75FCE0154B9B787B717B79002B06D07B79013BDBB2184600F014FDB8607B79002B02D0BB68002B03D17B79002B40F06D
:405F0000E380124B1B78DBB27A799A4208D00F4A7B791370104B01221A70012000F0F2F9FFF79CFD0346FB75CEE000BF006000402C4A0020F8940000A0940000BC4A002035
:405F4000484A00200082FF1F454A0020434A0020B44A0020424A0020404A002000F05AFE0346002B00F0B2805B4B1B793B715A4B1B79DAB2594B1A703B79594AD35CDAB236
:405F80003B795849CB5CDBB29A4204D0564B01221A7000F091FBFFF761FD0346FB7595E0FB7903F00303012B20D0012B0CD3022B00D03BE0484B9B78DBB2002B31D100F0E0
:405FC0007DFD0346FB752CE0434B9B78DBB2012B29D1464B1B78DBB223F00203DAB2434B1A70FFF73BFD0346FB751CE03A4B1B79DBB2012B19D8384B9B78DBB2DB43DBB22D
:40600000354A1279D2B211461046394A125CD2B21340DAB2364B5A54FFF720FD0346FB7503E000BF53E000BF51E000BF4FE0FB7903F00303012B20D0012B0CD3022B00D092
:406040003BE0254B9B78DBB2002B31D100F0C2FC0346FB752CE0204B9B78DBB2012B29D1224B1B78DBB243F00203DAB21F4B1A70FFF7F4FC0346FB751CE0174B1B79DBB2C1
:40608000012B19D8144B9B78DBB2DB43DBB2124A1279D2B211461046154A125CD2B21340DAB2134B5A54FFF7D9FC0346FB7503E000BF0CE000BF0AE000BF08E000BF06E0BE
:4060C00000BF04E000BF02E000BF00E000BFFB7D18461837BD4680BD00600040384A0020284A0020B44A0020404A0020454A0020B84A0020B0B58AB000AF7860324B07F191
:4061000014041D460FCD0FC42B682370002387F826307B68002B52D07B6822221A707B68013303221A7007F10C031846FEF730FB022387F827303EE097F827307A681344B3
:4061400097F8262007F128010A4412F81C2C1209D2B207F128010A4412F8142C1A7097F8273001337A68134400221A7097F8273002337A68134497F8262007F128010A4410
:4061800012F81C2C02F00F0207F128010A4412F8142C1A7097F8273003337A68134400221A7097F82630013387F8263097F82730043387F8273097F82730212BBCD900BFDF
:4061C0002837BD46B0BD00BF8C94000090B482B000AF0123FB7180E0464AFB791B0113440C221A70FA79444913465B0013449B000B4405331B78DBB2002B1CD0FA793E494F
:4062000013465B0013449B000B4404331B78DBB25BB2002B07DA394AFB791B01134402330C221A700EE0354AFB791B011344023308221A7006E0314AFB791B0113440233E8
:4062400080221A702B48F979FA792B4C13465B0013449B00234406331B889BB2DAB20B01034406331A702348F979FA79224C13465B0013449B00234406331B889BB21B0A32
:406280009BB2DAB20B01034407331A701948F979FA79194C13465B0013449B00234406331B889BB2DAB20B01034404331A701148F979FA79104C13465B0013449B002344C6
:4062C00006331B889BB21B0A9BB2DAB20B01034405331A70FB790133FB71FB79082B7FF67BAF074BFF221A7000BF0837BD4690BC704700BF70600040484A0020FC5F0040EB
:406300000A60004080B58AB000AF0346FB7100237B84002387F8273050E097F82720B34913465B0013449B000B4400221A7097F82720AE4913465B0013449B000B4402332B
:4063400000221A7097F82720A84913465B0013449B000B44033300221A7097F82720A34913465B0013449B000B44083300221A8097F827209D4913465B0013449B000B4474
:406380000A3300221A7097F82720984913465B0013449B000B44013300221A7097F82720924913465B0013449B000B44053300221A7097F82730013387F8273097F8273008
:4063C000082BAAD9FB79002B16D0002387F825300EE097F82530864A0021D15497F82530844A0021D15497F82530013387F8253097F82530012BECD97F4B1B78DBB2002BB5
:4064000000F051810023FB767B4B1B78DBB2013BDBB2184600F07EFA78617B695B683B613B6907331B7803F04003002B08D0734B1B78DBB243F00103DAB2704B1A7007E0FE
:406440006E4B1B78DBB223F00103DAB26B4B1A707B6908337B617B691B7887F82730012387F82530B6E07B695B68FB61002387F82630A3E097F82520FB699B7803F07F034C
:406480009A4240F0938097F82520584913465B0013449B000B4408331B889AB2FB699B889A420CD297F82520FB6998884F4913465B0013449B000B44083302461A80FB6982
:4064C0001B781A464A4B9B5CDAB2FB695B789A426CD197F82520FB699878444913465B0013449B000B44043302461A7097F82520FB69D8783D4913465B0013449B000B446B
:4065000002461A70FB69DB7803F00303FB73FB699B785BB2002B1CDA97F82520FB7B012B01D1072000E00D20304913465B0013449B000B44053302461A7097F825202B498A
:4065400013465B0013449B000B44013301221A701BE097F82520FB7B012B01D1052000E00920224913465B0013449B000B44053302461A7097F825201C4913465B00134426
:406580009B000B44013300221A70FB699B790A2B03D0FB699B79022B08D1FA7E97F825301946F869FEF77CFF0346FB76FB690833FB6197F82630013387F8263097F826200F
:4065C00097F827309A42FFF455AF97F82530013387F8253097F82530082B7FF644AF7B695B68FB61002387F8253020E0484A0020B44A0020284A0020434A0020454A0020BF
:40660000FB699B7803F07F02FB691878284913465B0013449B000B440A3302461A70FB690833FB6197F82530013387F8253097F8252097F827309A42E2D300F0A5F90246FE
:406640001C4B1A6000237B84012387F8273024E097F82720164913465B0013449B000B4406337A8C1A8097F82720114913465B0013449B000B4408331B889AB27B8C134469
:406680007B847B8C03F001039AB27B8C13447B8497F82730013387F8273097F82730082BD6D9FFF793FD00BF2837BD4680BD00BF484A00203C4A002090B585B000AF8F4B7E
:4066C0001B78DBB2002B00F015818C4B1B78DBB2013BDBB2184600F01DF978607B6808337B607B681B78FB707B685B68BB60844B1B78BB700023FB73F7E0BB681B78BA7855
:406700009A4240F0EC80BB787E4AD35CDAB2BB685B789A4240F0E380BB689B7803F07F037B70BB68DB7803F003033B707A78764913465B0013449B000B44033300221A708E
:406740007A78BB689878704913465B0013449B000B44043302461A707A78BB68D8786A4913465B0013449B000B4402461A707A78BB689888644913465B0013449B000B4487
:40678000083302461A80BB689B785BB2002B1ADA7A783B78012B01D1072000E00D205A4913465B0013449B000B44053302461A707A78554913465B0013449B000B44013328
:4067C00001221A7019E07A783B78012B01D1052000E009204C4913465B0013449B000B44053302461A707A78474913465B0013449B000B44013300221A70444A7B781B019A
:406800001344023301221A70404879787A783E4C13465B0013449B00234408331B889BB21B0A9BB2DAB20B0103441A70374879787A78354C13465B0013449B0023440833EC
:406840001B889BB2DAB20B01034401331A70304879787A782C4C13465B0013449B00234406331B889BB2DAB20B01034406331A70274879787A78244C13465B0013449B0078
:40688000234406331B889BB21B0A9BB2DAB20B01034407331A701E4879787A781A4C13465B0013449B00234406331B889BB2DAB20B01034404331A70154879787A78124C10
:4068C00013465B0013449B00234406331B889BB21B0A9BB2DAB20B01034405331A70BB680833BB60FB7B0133FB73FA7BFB789A42FFF403AF00BF1437BD4690BD434A00204E
:40690000384A0020B44A0020484A0020FC5F00407060004080B485B000AF0346FB710F4B1B78DBB20E4ADB0013445B68FB60FB681033FB60FB681B78FA799A4202D300230D
:40694000FB6005E0FB79DB00FA6813445B68FB60FB6818461437BD4680BC7047214A00202496000080B400AF054B1B78DBB2054ADB0013445B681846BD4680BC704700BFC0
:40698000214A00202496000080B584B000AF104B1B78DBB2013BDBB21846FFF7BBFFB860BB68002B0DD0BB685B681B79FB71FB790233DB00BA681344BB60BB685B68FB60A6
:4069C00001E00023FB60FB6818461037BD4680BD434A002080B582B000AF0023FB71344B1B79DBB203F07F03BB71BB79002B5AD0BB79082B57D8BA79B9792E480B465B00B7
:406A00000B449B00034402331B78DBB243F00103D8B2284913465B0013449B000B44023302461A70BA79234913465B0013449B000B44033300221A70BA79B9791D480B4611
:406A40005B000B449B00034401331B78DBB243F00203D8B2174913465B0013449B000B44013302461A70BA79124913465B0013449B000B4404331B78DBB25BB2002B07DA26
:406A80000D4ABB791B01134402338D221A7006E0094ABB791B011344023389221A70FEF7DDFF0346FB71FB7918460837BD4680BD00600040484A0020FC5F004080B582B0F5
:406AC00000AF0023FB71504B1B79DBB203F07F03BB71BB79002B00F09280BB79082B00F28E80BA79B97949480B465B000B449B00034402331B78DBB223F00103D8B24349DE
:406B000013465B0013449B000B44023302461A70BA793E4913465B0013449B000B44033300221A703A49BB793948BA79120102441278D2B202F07F02D2B21B010B441A700A
:406B4000BA79B97931480B465B000B449B00034401331B78DBB223F00203D8B22B4913465B0013449B000B44013302461A70BA79264913465B0013449B000B4404331B7894
:406B8000DBB25BB2002B1BDABA79204913465B0013449B000B4401331B78DBB2012B07D11B4ABB791B01134402330C221A7022E0174ABB791B01134402330D221A701AE047
:406BC000BA79124913465B0013449B000B4401331B78DBB2012B07D10D4ABB791B011344023308221A7006E0094ABB791B011344023309221A70FEF731FF0346FB71FB79BB
:406C000018460837BD4680BD00600040484A0020FC5F004080B584B000AF0023FB73154B1B79BB73144B1B78DBB2013BDBB21846FFF770FEB860BB685B681B79FB71BA7B82
:406C4000FB799A4202D9BB7B022B0ED8BB7BBA7B0A498A5CD1B20A4AD154BB7B054A9278D1B2064AD1540123FB73FB7B18461037BD4680BD00600040434A0020B44A002021
:406C8000284A002080B483B000AF0023FB71094B1B78DBB25BB2002B06DA064B5B78DBB2012B00D000E000BFFB7918460C37BD4680BC70470060004080B400AF054B1B7854
:406CC000DBB203F040039B09DBB21846BD4680BC704700BF8F4500400230800803D000BF01380046FCD17047EFF3108072B6704780F31088704700BF80B582B000AF00231F
:406D0000BB711B4B1B78DBB203F00303012B02D0022B04D012E0164B1B79FB7111E0144B1B79DBB203F07F02124913465B0013449B000B440A331B78FB7102E00023FB7174
:406D400000BFFB79022B0ED80B4B1A68FB7913441B78022B04D1FEF71DFA0346BB7102E00023BB7100BFBB7918460837BD4680BD00600040484A00203C4A00202DE9F04FC6
:406D80008DB006460F4614461D4600F091F9DFF81093CDE9000199F90080B8F1FF3F46D022462B462046294601F016FD834600283DD132463B463046394601F00DFD82461C
:406DC000002874D1304639460022002301F0D2FC002833D0002200232046294601F0CAFC8346B8B1A94A012300200021CDF828A0CDE90467CDE90645CDE90801039202930F
:406E0000B8F1000F6CD0A24B0022104619460DB0BDE8F08F2046294600F074FF38B1002200232046294601F0AFFC00286AD1DDE90023104619460DB0BDE8F08FDDE9000139
:406E400000F060FF804600287DD0DDE900014FF0000A4FF0000B52465B4601F08BFC0028E5D03046394600F04DFF0028DFD02046294600F047FF0028D9D099F9003083482F
:406E800004210022022BCDE90467CDE90645CDE908AB039002910A9204D002A800F038FF002847D101F044FD2223036042E0002200232046294601F05DFC0028B7D0744B5E
:406EC000724800220121B8F1020FCDF828B0CDE90467CDE90645CDE9082303900291A8D002A800F015FF00287ED00A9B43B301F01FFDDDE908230A990160104619460DB069
:406F0000BDE8F08F614999F900300122CDF828B0CDE90467CDE9064503910292002B68D05C490020022BCDE9080166D101F000FD212303600A9B1BB101F0FAFC0A9B036077
:406F4000DDE9082375E73046394600F0DBFE00283FF47BAF2046294600F0D4FE00283FF474AFDDE900231046194601F035FC00286FD1464B99F90080039303230A90CDE995
:406F80000467CDE906450293B8F1000F3BD1DFF814B14FF0604A0022002330463946CDE908AB01F0F1FB00283FF477AF00223A4B2046294601F076F904460D4600F0B0FE6F
:406FC00002460B462046294601F0D4FB00283DD1324B4FF06042CDE9082399F90080B8F1020F7FF45AAF5DE701F0A2FC212303607BE700230024CDE9083402A800F088FE71
:40700000002897D192E7DFF8A0B04FF0000A0022002330463946CDE908AB01F0B5FB0028DDD000221C4B2046294601F03BF904460D4600F075FE02460B462046294601F0DC
:4070400099FB18B9134B0022CDE9082399F90080C5E70E4A99F900900123CDF82880CDE90467CDE9064503920293B9F1000FC0D0002200231046194601F03EFAB9F1020F0E
:40708000CDE908013FF452AFB7E700BF2C9600000000F03F0000F0FF0000E03FFFFFEFC72681FF1FFFFFEF470000F07F000000002DE9F04F23F0004858EA020993B03CD019
:4070C000714C21F00046A64283460D460CDD06F1404606F5801656EA0B0038D183466B49584613B0BDE8F08F9A4696462BD0A045EDDC654CA04578D0002D0F468146CDE9E9
:40710000002376DB0024BEF1000F27D15E4B984500F08B805D4B984552D0BAF1804F00F0C9835B4B9A4519D1002D17DB4846394613B0BDE8F04F00F01DBDCB4658465349CC
:4071400013B0BDE8F08F0028C1D1B045D1DD514813B0BDE8F04F00F0DDBD00244846394600F0CCFDBBF1000F1CD0ED0F013D54EA050370D0484B984540F3948003F104738E
:40718000984540F30D84454B9E4270DDBAF1000F70DD3BA3D3E900231046194601F082F883469DE726B1394B25F040429A42DCD1BAF1000FC0F2B783002D08DB83468FE7D0
:4071C000BAF1000FC0F25E84CB46394688E706F1404606F5801656EA040300F08384012CECD101F1004183467AE7BEF1000F83D06DE72B4B98452CDCA3F15473984581DD59
:407200004FEA2853A3F2FF33142B40F35384C3F134032EFA03F202FA03F39E457FF472AF02F00102C2F102046DE706F1404303F5801353EA0B0300F03A83184B9E4240F3A4
:407240006783BAF1000F15DBDDE900349B46214646E7022457E74A4648463B46394600F06DFE02460B4601F047F9834638E7BAF1000F8EDB4FF0000B594631E7AFF3008036
:407280009C7500883CE4377E0000F07F0000F03F0000E03F309600000000E041FFFFEF3FFFFF3F43B6F5801F4FF0000205DAD04B00F0F8FF0E466FF03402DFF844E3331575
:4072C000C6F31306A3F2FF3346F07F57764503EB020A47F4401740F3C983C64B00229E4240F304840023CDE90823CDE90C23C24B0022CDE906230AF1010AA7F580170026FF
:407300003946DDE90623CDE90A0100F017FEDDE9062380468946DDE90A0100F011FE02460B460020B44901F0E7F80A4601461346CDE90E1202464946404600F0B3FF8C46A8
:4073400083467B1043F0005303F5002399190020CDE904BC06460F464FF0000B6146584632463B46CDE910BCCDE9020100F09AFF02460B464046494600F0E0FDDDE9062379
:40738000804689463046394600F0D8FD02460B46DDE90A0100F0D2FDDDE9022300F082FF02460B464046494600F0C8FDDDE90E2300F078FFDDE90478CDE906013A46434630
:4073C0003846414600F06EFF77A3D3E9002306460F4600F067FF76A3D3E9002300F0B0FD32463B4600F05EFF73A3D3E9002300F0A7FD32463B4600F055FF71A3D3E90023A7
:4074000000F09EFD32463B4600F04CFF6EA3D3E9002300F095FD32463B4600F043FF6CA3D3E9002300F08CFD3246804689463B463046394600F036FF02460B464046494633
:4074400000F030FFDDE9022306460F46DDE9040100F076FDDDE9062300F024FF32463B4600F06EFDDDE902678046894632463B463046394600F016FF0022604BCDE90A0198
:4074800000F05EFD42464B4600F05AFDDDE910BC0F46DDE902015A463B46CDE90EBC5E4600F000FF0022CDE90201544B3046394600F044FDDDE90A2300F040FD02460B46E4
:4074C0004046494600F03AFDDDE9042300F0EAFE324680468946DDE906013B4600F0E2FE02460B464046494600F02AFD8046894602460B46DDE9020100F022FDDDE90EBC05
:4075000035A3D3E900235846CDE906BC5E460F4600F0C8FEDDE90223CDE904013046394600F00CFD02460B464046494600F006FD2BA3D3E9002300F0B5FE2BA3D3E900239D
:40754000804689463046394600F0ACFE02460B464046494600F0F4FCDDE90C2300F0F0FC80465046894600F037FE06460F46DDE9040142464B4600F0E3FCDDE9082300F003
:40758000DFFC32463B4600F0DBFCDDE906BC324658463B46DA468B4600F0D0FCDDE9082330E000BFAFF30080EF4E454A287ECA3F65DBC9934A86CD3F01411DA96074D13FA3
:4075C0004D268F515555D53FFFAB6FDBB66DDB3F033333333333E33F000000E009C7EE3FFD033ADC09C7EE3FF5015B14E02F3EBE0000404379B60B000000F03F0000084091
:407600008E98030000F09AFCDDE9042300F096FC02460B464046494600F090FC80468946DDE90012013C54EA050314BFD64CD74C0023CDE904340B461446CDE9023400232F
:407640000293DDE9024508462B461146224600F075FC52465B4600F025FEDDE9002306460F464046494600F01DFE02460B463046394600F065FC06460F4622462B465046A4
:407680005946CDE9006700F00DFE0B460246804689463046394600F053FCBD4B064699420D460C4640F30E8101F13F4303F5E003034340F0F081A0A3D3E90023DDE90001FC
:4076C00000F03EFC424682468B464B463046294600F034FC02460B465046594601F072F8002840F0D8812F463B154FF48012A3F2FE3342FA03F32344C3F30A52A54EA2F23D
:40770000FF321641C3F3130B0020C2F1140523EA06014BF4801B02460B46002C4BFA05FB40464946B8BFCBF1000B00F007FC02460B4680468946DDE9000100F001FC4FEAA8
:407740000B5A00247EA3D3E9002320460D4600F0A9FD424606460F464B462046294600F0EDFB02460B46DDE9000100F0E7FB76A3D3E9002300F096FD75A3D3E90023804660
:4077800089462046294600F08DFD02460B464046494600F0D5FB8046894602460B463046394600F0CDFB32463B4604460D4600F0C5FB02460B464046494600F0BFFB22465C
:4077C000804689462B462046294600F06BFD62A3D3E9002306460F4600F064FD60A3D3E9002300F0ABFB32463B4600F05BFD5EA3D3E9002300F0A4FB32463B4600F052FD20
:407800005BA3D3E9002300F099FB32463B4600F049FD59A3D3E9002300F092FB32463B4600F040FD02460B462046294600F086FB06460F4602460B462046294600F032FD2D
:407840000022CDE900014FF080433046394600F075FB02460B46DDE9000100F04DFE424606460F464B462046294600F01BFD42464B4600F065FB02460B463046394600F0BF
:407880005DFB22462B4600F059FB02460B4600203D4900F053FB8A44BAF5801FC0F237815146DDE9042300F0FDFC834618E4F346354915E44A4648463B46394600F0F2FC72
:4078C00083460DE4344B21F000479F4240F30181324B0B4403430CD142464B4600F02EFB02460B46DDE9000100F058FF00283FF4FBAE23A3D3E90023DDE9040100F0D2FC67
:407900001FA3D3E9002300F0CDFC8346FFF7E8BBBAF1000FBFF6AEACDDE900349B4604F10041FFF7DDBB02460B460020164900F0E3FD41E4AFF30080FE822B654715973CB5
:4079400000000000432EE63FEF39FAFE422EE63F396CA80C615C20BED0A4BE726937663EF16BD2C541BDBB3E2CDE25AF6A56113F93BDBE166CC1663F3E5555555555C53F27
:4079800059F3F8C21F6EA5010000F03F0000F0BFFFFF8F40FFFF0F00FFCB904000346F3F6F4B9E427FF763AC6E4B9E423FF7EEAB00226C4B00F0C2FA5BA3D3E90023064625
:4079C0000F4600F06FFC5AA3D3E90023804689463046394600F066FC002282468B46624B3046394600F05EFC02460B4652A1D1E9000100F0A3FA32463B4600F053FC024624
:407A00000B460020594900F099FA3246CDE902013B463046394600F045FC02460B46DDE9020100F03FFC46A3D3E9002300F03AFC02460B465046594600F080FA02460B468C
:407A400006460F464046494600F07AFA42464B46002082468B4600F071FA02460B463046394600F06BFA80468946D9E500220023CDE90823CDE90C233A4B00220026CDE9FB
:407A800006233DE44A463B460020364900F034FD8346FFF725BB2CA3D3E90023DDE9040100F000FC28A3D3E9002300F0FBFB8346FFF716BBBEF1000F7FF44FABC3F1140391
:407AC00048FA03F202FA03F3984524D07446FFF721BB264B9F423FF707AEDDE902349A469B462EE602460B46FFF7B9BB204B4FF48026CDE9062316A3D3E90023CDE9082343
:407B000015A3D3E90023CDE90C23FFF7F9BB5A4600F096F9C5E602F00102C2F10204FFF7F9BA00BFAFF30080000000604715F73F44DF5DF80BAE543E555555555555D53F56
:407B4000FE822B654715F73F9C7500883CE4377E0000004003B8E23F06D0CF43EBFD4C3EFEFFEF3F0000F03F0000D03F0000E03F0000F83F2DE9F0415F4E0C46B6460E4030
:407B80007645054600F0988000290B46024674DD5FEA215E7FD0AEF2FF3EC3F313031EF0010F43F4801363D100273E4603EBD2710B444FEA6E0E520016204FF40011741880
:407BC0009C424FEAD2754FEA420202DC1B1B66180F44013805EB43034FEA5101EFD1844620244FF0004109E020D003EBD275013C4FEA51012B444FEA420220D09E4201EBFF
:407C00000C05F1DA002D05EB010C09DBB0469542A3EB060300D9013B4646521B0844E4E7BCF1000FF2DB06F10108F0E7954217D8002D05EB010C49DB98460023ECE7134333
:407C400010D140087B1003F17F5303F50013FA0703EB0E57394648BF40F00040BDE8F0813346C2E7411C35D000F001031844E8E75B0003EBD273520096E721F0004606437F
:407C8000ECD079BB8E46D30AAEF1150E5205002BF9D0DD0221D4002100E001465B00DC0201F10100F9D5C0F1200422FA04F42343C1EB0E0E82406EE702460B4600F0F2FA5D
:407CC0002A46234600F03CF9BDE8F081BCF1000FA9DAB1E701372046B4E720244FF0FF310020E2E702460B4600F028F902460B4600F002FCB2E700BF0000F07F21F000417A
:407D0000704700BF41F0004101F58010C00F70470020704700200149704700BF0000F87FF0B5C1F30A5EAEF2FF36132E83B002460B460C464FEAD17507462EDC002E49DB04
:407D40003D49314103EA010010432BD049080B4053EA02070CD04FF48023132E24EA010143FA06F444EA01040CBF4FF000470027324B214603EBC505D5E900453846224673
:407D80002B4600F0DDF8CDE90001DDE9000122462B4600F0D3F803B0F0BD332E06DDB6F5806F45D01046194603B0F0BDAEF2134E4FF0FF3121FA0EF10842F3D049080842E1
:407DC000D6D04FF0804320EA010143FA0EFE4EEA0107CDE721F0004101431946E4D0C3F3130343EA000CCCF1000343EA0C0C134B640C4FEA1C3C0CF4002C03EBC503640436
:407E0000D3E900674CEA040132463B4600F098F8CDE90001DDE9000132463B4600F08EF8024621F0004141EAC57310461946BBE700F086F8B8E700BFFFFF0F003896000083
:407E4000F8B5C1F30A5604460D460B46174606BB21F00043034325D000222F4B00F022FA2E4A044697420D460B462ADBC1F30A56363E40F2FE723E44964228DC002E12DD15
:407E800023F0FF4323F4E00343EA065520462946F8BD40F2FF729642EBD102460B4600F04FF8F8BDF8BD16F1350F1DDA4CF250339F420CDC14A1D1E9000122462B4600F0EB
:407EC00031F811A3D3E9002300F0ECF9F8BD22460FA1D1E900012B4600F024F80CA3D3E9002300F0DFF9F8BD23F0FF4323F4E003363643EA0655204629460022084B00F064
:407F0000D1F9F8BDAFF3008059F3F8C21F6EA5019C7500883CE4377E00005043B03CFFFF0000903C03F0004321F0004242EA0301704700BF81F0004102E000BF83F0004378
:407F400030B54FEA41044FEA430594EA050F08BF90EA020F1FBF54EA000C55EA020C7FEA645C7FEA655C00F0E2804FEA5454D4EB5555B8BF6D420CDD2C4480EA020281EA7D
:407F8000030382EA000083EA010180EA020281EA0303362D88BF30BD11F0004F4FEA01314FF4801C4CEA113102D0404261EB410113F0004F4FEA03334CEA133302D05242D3
:407FC00063EB430394EA050F00F0A780A4F10104D5F1200E0DDB02FA0EFC22FA05F2801841F1000103FA0EF2801843FA05F359410EE0A5F120050EF1200E012A03FA0EFC7E
:4080000028BF4CF0020C43FA05F3C01851EBE37101F0004507D54FF0000EDCF1000C7EEB00006EEB0101B1F5801F1BD3B1F5001F0CD349085FEA30004FEA3C0C04F101045A
:408040004FEA445212F5800F80F09A80BCF1004F08BF5FEA500C50F1000041EB045141EA050130BD5FEA4C0C404141EB010111F4801FA4F10104E9D191F0000F04BF0146E7
:408080000020B1FA81F308BF2033A3F10B03B3F120020CDA0C3208DD02F1140CC2F10C0201FA0CF021FA02F10CE002F11402D8BFC2F1200C01FA02F120FA0CFCDCBF41EADC
:4080C0000C019040E41AA2BF01EB0451294330BD6FEA04041F3C1CDA0C340EDC04F11404C4F1200220FA04F001FA02F340EA030021FA04F345EA030130BDC4F10C04C4F113
:40810000200220FA02F001FA04F340EA0300294630BD21FA04F0294630BD94F0000F83F4801306BF81F480110134013D4EE77FEA645C18BF7FEA655C29D094EA050F08BF9F
:4081400090EA020F05D054EA000C04BF1946104630BD91EA030F1EBF0021002030BD5FEA545C05D14000494128BF41F0004130BD14F580043CBF01F5801130BD01F0004547
:4081800045F0FE4141F470014FF0000030BD7FEA645C1ABF194610467FEA655C1CBF0B46024650EA013406BF52EA033591EA030F41F4002130BD00BF90F0000F04BF00217A
:4081C000704730B54FF4806404F132044FF000054FF0000150E700BF90F0000F04BF0021704730B54FF4806404F1320410F0004548BF40424FF000013EE700BF42004FEA49
:40820000E2014FEA31014FEA02701FBF12F07F4393F07F4F81F06051704792F0000F14BF93F07F4F704730B54FF4607401F0004521F0004120E700BF50EA010208BF704708
:4082400030B54FF000050AE050EA010208BF704730B511F0004502D5404261EB41014FF4806404F132045FEA915C3FF4DCAE4FF003025FEADC0C18BF03325FEADC0C18BF50
:40828000033202EBDC02C2F1200300FA03FC20FA02F001FA03FE40EA0E0021FA02F11444C1E600BF70B54FF0FF0C4CF4E06C1CEA11541DBF1CEA135594EA0C0F95EA0C0F00
:4082C00000F0DEF82C4481EA030621EA4C5123EA4C5350EA013518BF52EA033541F4801143F4801338D0A0FB02CE4FF00005E1FB02E506F00042E0FB03E54FF00006E1FB9F
:4083000003569CF0000F18BF4EF0010EA4F1FF04B6F5007F64F5407404D25FEA4E0E6D4146EB060642EAC62141EA55514FEAC52040EA5E504FEACE2EB4F1FD0C88BFBCF53B
:40834000E06F1ED8BEF1004F08BF5FEA500E50F1000041EB045170BD06F0004646EA010140EA020081EA0301B4EB5C04C2BFD4EB0C0541EA045170BD41F480114FF0000E44
:40838000013C00F3AB8014F1360FDEBF002001F0004170BDC4F10004203C35DA0C341BDC04F11404C4F1200500FA05F320FA04F001FA05F240EA020001F0004221F0004117
:4083C00010EBD37021FA04F642EB06015EEA430E08BF20EAD37070BDC4F10C04C4F1200500FA04F320FA05F001FA04F240EA020001F0004110EBD37041F100015EEA430E24
:4084000008BF20EAD37070BDC4F1200500FA05F24EEA020E20FA04F301FA05F243EA020321FA04F001F0004121FA04F220EA020000EBD3705EEA430E08BF20EAD37070BD4D
:4084400094F0000F0FD101F00046400041EB010111F4801F08BF013CF7D041EA060195F0000F18BF704703F00046520043EB030313F4801F08BF013DF7D043EA0603704703
:4084800094EA0C0F0CEA135518BF95EA0C0F0CD050EA410618BF52EA4306D1D181EA030101F000414FF0000070BD50EA410606BF1046194652EA430619D094EA0C0F02D117
:4084C00050EA013613D195EA0C0F05D152EA03361CBF104619460AD181EA030101F0004141F0FE4141F470014FF0000070BD41F0FE4141F4780170BD70B54FF0FF0C4CF4BA
:40850000E06C1CEA11541DBF1CEA135594EA0C0F95EA0C0F00F0A7F8A4EB050481EA030E52EA03354FEA013100F088804FEA03334FF0805545EA131343EA12634FEA0222B6
:4085400045EA111545EA10654FEA00260EF000419D4208BF964244F1FD0404F5407402D25B084FEA3202B61A65EB03055B084FEA32024FF480104FF4002CB6EB020E75EB14
:40858000030E22BFB61A754640EA0C005B084FEA3202B6EB020E75EB030E22BFB61A754640EA5C005B084FEA3202B6EB020E75EB030E22BFB61A754640EA9C005B084FEA64
:4085C0003202B6EB020E75EB030E22BFB61A754640EADC0055EA060E18D04FEA051545EA16754FEA06164FEAC30343EA52734FEAC2025FEA1C1CC0D111F4801F0BD141EA6B
:4086000000014FF000004FF0004CB6E711F4801F04BF01430020B4F1FD0C88BFBCF5E06F3FF6AFAEB5EB030C04BFB6EB020C5FEA500C50F1000041EB045170BD0EF0004E7F
:408640004EEA113114EB5C04C2BFD4EB0C0541EA045170BD41F480114FF0000E013C90E645EA060E8DE60CEA135594EA0C0F08BF95EA0C0F3FF43BAF94EA0C0F0AD150EA84
:4086800001347FF434AF95EA0C0F7FF425AF104619462CE795EA0C0F06D152EA03353FF4FDAE1046194622E750EA410618BF52EA43067FF4C5AE50EA41047FF40DAF52EA58
:4086C00043057FF4EBAE12E74FF0FF3C06E000BF4FF0010C02E000BF4FF0010C4DF804CD4FEA410C7FEA6C5C4FEA430C18BF7FEA6C5C1BD001B050EA410C0CBF52EA430CFF
:4087000091EA030F02BF90EA020F0020704710F1000F91EA030F58BF994208BF90422CBFD8176FEAE37040F0010070474FEA410C7FEA6C5C02D150EA013C07D14FEA430C92
:408740007FEA6C5CD6D152EA033CD3D05DF8040B704700BF8446104662468C461946634600E000BF01B5FFF7B7FF002848BF10F1000F01BD4DF808EDFFF7F4FF0CBF01207A
:4087800000205DF808FB00BF4DF808EDFFF7EAFF34BF012000205DF808FB00BF4DF808EDFFF7E0FF94BF012000205DF808FB00BF4DF808EDFFF7CEFF94BF012000205DF87E
:4087C00008FB00BF4DF808EDFFF7C4FF34BF012000205DF808FB00BF4FEA410C7FEA6C5C02D150EA013C0AD14FEA430C7FEA6C5C02D152EA033C02D14FF0000070474FF08E
:40880000010070474A0011D212F5001211D20DD56FF47873B3EB62520ED44FEAC12343F0004343EA505323FA02F070474FF00000704750EA013002D14FF0FF3070474FF032
:40884000000070474FEA4102B2F1E04324BFB3F5001CDCF1FE5C0DD901F0004C4FEAC0024CEA5070B2F1004F40EB830008BF20F00100704711F0804F21D113F13872BCBF03
:4088800001F00040704741F480114FEA5252C2F11802C2F1200C10FA0CF320FA02F018BF40F001004FEAC1234FEAD32303FA0CFC40EA0C0023FA02F34FEA4303CCE77FEA30
:4088C000625307D150EA01331EBF4FF0FE4040F44000704701F0004040F0FE4040F40000704700BF4FEA4002B2F1FE4F0FD34FF09E03B3EB12620DD94FEA002343F00043B8
:4089000010F0004F23FA02F018BF404270474FF00000704712F1610F01D1420205D110F0004008BF6FF0004070474FF000007047014B1868704700BF8881FF1F0E4B70B53A
:408940001E460E4C0025E41AA410A54204D056F8253098470135F8E700F092FE084B094C1E46E41AA4100025A54204D056F8253098470135F8E770BD8C9600008C960000EA
:408980008C9600009496000010B5431E0A44914204D011F8014B03F8014FF8E710BD03460244934202D003F8011BFAE7704700000EB400B54FF402719CB0ADF814106FF07E
:4089C0000041049107914FF6FF711DAB02900690084853F8042BADF81610006802A9019300F064F8029B00221A701CB05DF804EB03B070478881FF1F2DE9F0478E688246E7
:408A00009E420C46914698463ED88A8912F4906F3AD02568096902236F1A656905EB450595FBF3F57B1C43449D4238BF1D4653050FD5294600F040FB064698B13A4621691E
:408A4000FFF7A2FFA38923F4906343F08003A38113E02A4600F08EFB064670B92169504600F0DEFA0C23CAF80030A3894FF0FF3043F04003A381BDE8F08726613E44266016
:408A800046466561ED1BA560464528BF464649463246206800F0A8FAA36800209B1BA36023681E442660BDE8F08700002DE9F04F9DB003938B8980461C060D4616460DD500
:408AC0000B695BB9402100F0F7FA2860286118B90C23C8F80030CDE040236B610023099320238DF82930DFF89CB130238DF82A3037463C4614F8013B1BB9B7EB060910D0ED
:408B000003E0252BF9D02746F3E74B46324629464046FFF771FF013000F0A780099B4B4409933B78002B00F0A08000234FF0FF3204930793059206938DF853301A930126B9
:408B4000052221784E4800F041FA671C049B38B14B4A3C46801A06FA00F018430490EFE7D90644BF20228DF853201A0744BF2B228DF8532022782A2A03D0079A00210A20D1
:408B80000BE0039A111D12680391002A10DA524243F00200079204900BE027463B780134303B092B03D800FB02320121F5E701B107923B782E2B1ED17B782A2B0AD1039BF9
:408BC00002371A1D1B680392002BB8BF4FF0FF33059310E0002319460593781C0A2407463A780130303A092A03D804FB01210123F5E703B1059103223978224800F0E6F954
:408C000040B14023CBEB000003FA00F0049B013718430490397806221B487E1C8DF8281000F0D4F988B1194B33B9039B073323F007030833039314E003AB00932A46144BD4
:408C400004A94046AFF3008007E003AB00932A460F4B04A9404600F093F8B0F1FF3F824603D0099B5344099342E7AB895B0601D4099801E04FF0FF301DB0BDE8F08F00BF7B
:408C80004A960000509600005496000000000000F98900002DE9F04791461F460A698B6806469342B8BF1346C9F8003091F843200C46DDF8208012B10133C9F8003023688B
:408CC000990642BFD9F800300233C9F80030256815F0060510D104F1190A07E00123524639463046C04701301AD00135E368D9F800209B1A9D42F1DB94F8433022680033CF
:408D000018BF012392060FD5E118302081F843005A1C94F845102244023382F8431003E04FF0FF30BDE8F08704F1430239463046C0470130F4D02268D9F80050E36802F078
:408D40000602042A08BF5D1B2269A3680CBF25EAE57500259342C4BF9B1AED184FF000091A344D4509D00123224639463046C0470130D5D009F10109F3E70020BDE8F08704
:408D80002DE9F04317460A7E85B06E2A984606460C460C9B01F1430E00F0AE8011D8632A22D009D8002A00F0BB80582A40F0CA8081F84520834955E0642A1ED0692A1CD0C0
:408DC000C0E0732A00F0B08009D86F2A2ED0702A40F0B8800A6842F020020A603EE0752A24D0782A3AD0ADE01A6801F14205111D1960136884F84230A8E021681A6811F023
:408E0000800F02D0111D196008E011F0400F02F10401196002D0B2F9003000E01368002B3CDA2D225B4284F8432037E021681A6811F0800F02D0111D196007E011F0400F0B
:408E400002F10401196001D0138800E01368227E5C496F2A14BF0A2208221BE078225A4984F845202268186812F0800F00F104051D6003D1550601D5038800E00368D007D6
:408E800044BF42F0200222601BB9226822F0200222601022002084F8430001E049490A226568002DA56008DB206820F0040020602BB9002D7DD175460CE0002B79D07546E2
:408EC000B3FBF2F002FB1033CB5C05F8013D03460028F5D1082A0BD12368DA0708D5236962689A42DEBF302305F8013C05F1FF35C5EB0E0323612EE008681A6810F0800F58
:408F0000496903D0101D1860136808E010F0400F02F104001860136801D0198000E0196000232361754616E01A68111D1960156800216268284600F049F808B1401B60604C
:408F4000636804E004F1420584F8422001232361002384F84330CDF800803B4603AA21463046FFF797FE013002D14FF0FF3026E023692A4639463046C0470130F5D02368A2
:408F80009B0710D5002504F1190907E001234A4639463046C0470130E7D00135E368039A9B1A9D42F2DBE068039B9842B8BF184605E00B7804F1420584F842308AE705B0A3
:408FC000BDE8F0835B9600006C96000010B5C9B202449042034605D01C7801308C42F8D1184610BD002010BD884210B501EB020301D8421E0BE09842FBD28118D21AD34297
:4090000004D013F8014D01F8014DF8E710BD994204D011F8014B02F8014FF8E710BD000038B50546002944D051F8043C0C1F002BB8BFE41800F0D4F81E4A1368114613B98D
:409040006360146030E0A3420DD92268A018834201BF18685B681218226063600C6023E0A24203D813465A68002AF9D118681918A1420BD12168014458188242196013D159
:4090800010685268014419605A600DE002D90C232B6009E021686018824201BF106852680918216062605C602846BDE8384000F098B838BD0882FF1F70B5CD1C25F0030531
:4090C00008350C2D38BF0C25002D064601DBA94202D90C23336046E000F082F8234B1C681A462146A1B10B685B1B0ED40B2B03D90B60CC18CD501EE08C420BBF63684B68FD
:409100001360636018BF0C4615E00C464968E9E7174C23681BB9304600F052F820602946304600F04DF8431C18D0C41C24F00304A0420DD12560304600F053F804F10B00C4
:40914000231D20F00700C31A0ED05A42E25070BD211A304600F034F80130EBD10C233360304600F03EF8002070BD00BF0882FF1F0482FF1FF8B5074615460E4621B9114698
:40918000BDE8F840FFF798BF1AB9FFF749FF2846F8BD00F027F885420ED929463846FFF78BFF044650B131462A46FFF7EDFB31463846FFF735FF01E03046F8BD2046F8BDD1
:4091C00038B5064C0023054608462360F8F718FC431C02D1236803B12B6038BDE04A00207047704751F8040C0028BEBF091851F8043CC018043870470000000000000000D2
:4092000014001E00280050007800FA00F401E8034572726F723100004E6172657375616E20506F74656E74696F73746174000000446F6E6500000000446F6E6525640000F7
:409240004572726F72204578706F7274696E6700935A0040244300400C51004024430040005B0040244300408000810080000000005B00400D510040101000008B5A0040AB
:409280003C5100403D5100402443004001202000435B0040435B004001020000205100401000405100403000C05100401000000001408001000201408005000801408001F5
:4092C000000C01408001000E01408000001401408001001601408001001801408001001A01408001004201408000004301408000004501400001004901408000004C014048
:409300008000004D01408000105001401000000010510140000000480600785200400800004807007845004010000048080000510140180000480800985A004020000048AC
:409340000800000A0140280000488000800A0140A80000488000800E014028010048800000500140A80100481000804D0140B80100488000804C0140380200488000004738
:409380000140B802004880008047014038030048800000460140B803004880008046014038040048800000440140B8040048800080440140380500488000801B0140B8051E
:4093C000004880008015014038060048800080190140B806004880008017014038070048800080090140B8070048800080070140380800488000000B0140B8080048800095
:40940000800B0140380900488000800D0140B80900488000000F0140380A00488000800F0140B80A0048800080010140380B0048800080490140B80B004880000048014061
:40944000380C0048800080480140B80C0048800080430140380D0048800080420140B80D0048800000410140380E0048800080410140B80E0048800000400140380F00487A
:40948000800080400140B80F0048800030313233343536373839414243444546000000001201000202000008B40432F2010001058001000009024300020101806409040034
:4094C000000102020103052400100104240202052406000105240100010705810308000A09040100020A000004070582024000000705030240000000040309042C0343003B
:409500007900700072006500730073002000530065006D00690063006F006E0064007500630074006F007200100355005300420055004100520054003803430044004300C8
:40954000200043006F006D006D0075006E00690063006100740069006F006E00200049006E0074006500720066006100630065002603430044004300200044006100740098
:409580006100200049006E0074006500720066006100630065002C034E006100720065007300750061006E00200050006F00740065006E00740069006F0073007400610073
:4095C000740000000203000000008103080002000100820240000A000100030240000A00020A000001000000B494000003000000C895000000000000000000000000000090
:409600000000000000000000E095000001000000A0940000000000000000000001000000E4950000010000000C960000706F7700000000000000000000000000000030439A
:4096400000000000000030C34300232D302B2000686C4C006566674546470030313233343536373839414243444546003031323334353637383961626364656600000000C1
:40968000F8B500BFF8BC08BC9E4670474D000000E91A0000F8B500BFF8BC08BC9E46704729000000B8960000C880FF1FC800000058C900000000000000000000B80BA00F24
:4096C000E84A0020010000000038000080808080808080808080808080808080FFFFFFFFFFFF0000807F000001000000006CDC0280BB0000300000000000C05D00C2010050
:4097000000000800C201000000080000A1200000000002000000010000000000000000000000000000000000000000000000000000000000000000004896000000000000B4
:4097400000000000000000000000000000000000000000000000000000000000000000000000000000000000000000000000000000000000000000002881FF1F0000000022
:4097800000000000000000000000000000000000000000000000000000000000000000000000000000000000000000000000000000000000000000000000000000000000A9
:4097C0000000000000000000000000000000000000000000000000000000000000000000000000000000000000000000000000000000000000000000000000000000000069
:409800000000000000000000000000000000000000000000000000000000000000000000000000000000000000000000000000000000000000000000000000000000000028
:4098400000000000000000000000000000000000000000000000000000000000000000000000000000000000000000000000000000000000000000000000000000000000E8
:020000040003F7
:0200000480007A
:40000000020000000000000000000000400000000000000000000200EA0F000000000000000000000000000100000000000000000000000000000000000000000000000082
:4000400000000000000000000000000000000000000000000000000000000000000000000000000000000000100400000000000000FFFFFF00A000041800000000000000B3
:4000800000000400000000014000C0004040C000C000C000C000C00000000000000000000000000000000000000000000000000008000000000000000000000000000000F3
:4000C0000000000000000600000000000000040000000200000001000000080006000100000000000000040010040000000012001CFFFFFF00AF0F04180080000000000047
:4001000004000404000000014000C0004040C000C000C000C000C0000000000000000000000000000000000000000000000000000000000000000000000000000000000072
:40014000000000000000000000000000000000000000000000000000000000000000000020000000000010000000000000000000000000000000000000000000000000004F
:400180000400000000000001000000000000000000000000000000000000000000000000000000000000000001000000000000000000000001000000000000000000000038
:4001C00000000000000000000000000000000000000000000000000000000000000000000000000000000000100000002000000000000000000000000000000000000000CF
:4002000000000000000000000000000000000000000000000000000000000000000000000400000008000000000000000000000000000000000000000000000000000000B2
:400240000000000000000000000000000000000000000000100000000000000020000000000000000800004400000000000000000000000000000000000000000000000002
:40028000000000000000000000000000000000000000000000000000000000000000000000000000000000000000000000000000000000000000000000000000000000003E
:4002C0000800000400000040000000000000000000000000000000000000000000000000000000000000000020000000000000000000000000000000000000000000000092
:4003000000000000000000000000000000000000000000000000000000000000000000000000000000000000000000000000000000000000000000000000000000000000BD
:40034000000000000000000000000000000000000000000010000000000000000000000000000000000000000000000000000000000000000000000000000E00000000005F
:400380000000000008000000000000000000000000000000000000000000000000000000000000000000000000000000000000000000000000000000000000000000000035
:4003C00000000000000000000000000000000000000000000000000000000000000000000000000000000000000000000000000000000000000000000000000010000000ED
:4004000000000000000000000000000000000000000000000000000000000000000000000000000000000000000000000000000000000000000000000000000000000000BC
:40044000000000000000000000000000000000000000000000000000000000000000000000000000000000000000000000000000000000000000000000000000000000007C
:40048000000000000000000001000000000000000000000000000000000000000000000000000000000000000000000000000000000000000000000000000000000000003B
:4004C00000000000000000000000000000000000000000000000000000000000000000000000000000000000000000000000000000000000000000000000000000000000FC
:40050000000000000000000000000000000000000000000000000000000000000000000000000000000000000000000000000000000000002000000000000000000000009B
:40054000000000002000000000000000000000000000000000000000000000000000000000000000000000000000000000000000000000000000000000000000000000005B
:400580000000000000000000000000000000000000000000000001000200000000000000000000000000000000000000000000000000000000000000000000000000000038
:4005C00000000000000000000000000000000000000000000000000000000000000000000000000000000000000000000000000000000000000000000000000000000000FB
:40060000000000000000000000000000000000000000000000000000000000000000000020000000100000000000000000000000000000000000000000000000000000008A
:40064000000000000000000000000000000000000000000000000000000000000000000000000000000000000000000000000000000000000000000000000000000000007A
:40068000000000000000000000000000000000000000000000000000000000000000000020000000100000000000000000000000000000000000000000000000000000000A
:4006C00000000000000000000000000000000000000000000000000000000000000000000000000000000000000000000000000000000000000000000000000000000000FA
:4007000000000000000000000000000000000000000000000000000000000000000000000000020000000A00000000000000000000000000000000000000000000000000AD
:400740000000000000000000000000000000000000000000000000000000000000000000000000000000000000000000000000000000000000000000000000000000000079
:4007800000000000000000000000000000000000000000000000000000000000000000000000020000000A000000000000000000000000000000000000000000000000002D
:4007C00000000000000000000000000000000000000000000000000000000000000000000010000000000000000000000000000000000000000000000000000000000000E9
:4008000000000000000000000000000000000000000000000000000000000000000000000000000000000000000000000000000000000000000000000000000000000000B8
:400840000000000000000000000000000000000000000000000000000000000000000000000000000000000000000000000000000000000000000000000000000000000078
:400880000000000000000000000000000000000000000000000000000000000000000000000000000000040000000000000000000000000000000000000000000010000024
:4008C000000000000080000000000000000028800000000021900000000000000000000000000000000000000000000000000000000000000000000001008000008080009E
:400900000000000000000000000000000000A8000000000000000000000000000000000000000000000000000000000000000080000000000000000000000000000000008F
:40094000000000000000000000000000000000000000000000000000000000001000000000000000000000000000000000000000000000000000000040008000E0000000C7
:40098000000000000000000099000000000000000000000000000000000000000000000000000000000000000000000000000000000000000000000000000000000000009E
:4009C00000000000000000000000000000000000000000000000000000000000100000000000000000000000000000000000000000000000000000000000000000000000E7
:400A000000000000000000000000000000000000000000000000000000000000000000000000000000000000000000000000000000000000000000000000000000000000B6
:400A40000000000000000000000000000000000000000000001000000000000000000000000000000000000000000000000000000000000000000000000000000000000066
:400A80000000000000000000000000000000000000000000000000000000000000000000000000000000000000000000000000000000000000000000000000001000000026
:400AC00000000000001000000000000000000000000000000000000000000000000000000000000000000000000000000000000000000000000000000000000000000000E6
:400B000000000000000000000000000000000000000000000000000000000000000000000000000000000000000000000000000000000000000000000000000000000000B5
:400B40000000000000000000000000000000000000000000000000000000000000000000000000000000000000000000000000000000000000000000000000000000000075
:400B8000000000000000000000000000000000000000000000000000000008000000000000000000000000000000000000000000000000000000000000000000000000002D
:400BC00000000000000000000000000000000000000000000000000000000000000000000000000000000000000100004000000000000000000000000000000000000000B4
:400C000000000000000000000000000000000000000000000000000000000000000000000000000000000000000000000000000000000000000000000000000000000000B4
:400C400000000000000000000000000000000000000000000000000000010000C00000000000000000000000000000000000000000000000000000000000000000000000B3
:400C80000000000000000000000000000000000000000000000000000000000000000000000000000000000000000000000000000000000000000000000000000000000034
:400CC00000000000000000000000000040000000000000000000000000000000000000000000000000004081000000000000000000000000000000000000000000000000F3
:400D0000C000000000000000000000000000000000000000000000000000000000000000000040000000500000000000000000000000000000000000000000000000000063
:400D40000000000000000000000000004000000000000000000000010000000000004080001000000000000000000000000000000000000000000000000000000000000062
:400D80000000000000000000000000000000000000000000000000000000000000000000000000000000200000000000000000000000000000000000000000000000000013
:400DC00000000000000000000000000040000000000000000010000100000000000040800000000000000000000000000000000000000000000000000000000000000000E2
:400E000000000000000000000000000000000000000000000000000000000000000000000000000000000000000000000000000000000000000000000000000000000000B2
:400E40000000000000000000000000000000000000000000000000000000000000000000000000000000000000100000000000000000000000000000000000000000000062
:400E80000000000000000000000000000000000000000000000000000000000000000000000000000000000000000000000000000000000000000000000000000000000032
:400EC00000000000000000000000000040000000000000000000000100000000000040800000000000000000000000000000000000000000000000000000000000000000F1
:400F000000000000100000000000000000000000000000000000000000000000000000000000000000000000000000000000000000000000000000000000000000000000A1
:400F40000000000000000000000000000000000000000000000000000000000000000000000000000000000000000081000040080000200040000000000000000000000048
:400F80000000000000000000000000000000000000000000000000000000000000000000000000000000000000000000000000000000000000000000000000000000200809
:400FC00000000000000000000000000000000000000000000000000000000000000000000000000000000000000000000000000000000000000000000000000000000000F1
:4010000000000000F00030000000000000000000000000000000000000001000000000000000000000000000000000000000000000000000000000000000000000009100EF
:401040004000000000000000C0000000000B0B000000000000000000000052001D0018010000000000000000000000000000000000000000000000000000000000000000D2
:401080000000000000000000000000000000000000000000000000000000000000000000000000000000000000000000000000000000000000000000000000000000000030
:4010C00000000000000000000000000000000000000000000000000000000000000000000000000000000000000000000000000000000000000000000000000000000000F0
:4011000000000000000000000000000000000000000000000000000000000000000000000000000000000000000000000000000000000000000000000000000000000000AF
:40114000000000000000000000000000000000000000000000000000000000000000000000000000000000000000000000000000000000000000000000000000000000006F
:0200000490006A
:0400000000004005B7
:0200000490105A
:04000000BC90ACAF55
:0200000490303A
:02000000A35DFE
:0200000490402A
:4000000000000000000000000000000000000000000000000000000000000000000000000000000000000000000000000000000000000000000000000000000000000000C0
:400040000000000000000000000000000000000000000000000000000000000000000000000000000000000000000000000000000000000000000000000000000000000080
:400080000000000000000000000000000000000000000000000000000000000000000000000000000000000000000000000000000000000000000000000000000000000040
:4000C0000000000000000000000000000000000000000000000000000000000000000000000000000000000000000000000000000000000000000000000000000000000000
:0200000490501A
:0C00000000012E16106900012E50B3C63E
:00000001FF